:020000040800F2
:1000000000000120B9200008391C0008411C00082C
:10001000491C0008511C0008591C00080000000081
:10002000000000000000000000000000611C00084B
:100030006F1C0008000000007D1C00088B1C0008DD
:1000400009210008092100080921000809210008E8
:1000500009210008092100080921000809210008D8
:1000600009210008092100080921000809210008C8
:1000700009210008092100080921000809210008B8
:1000800009210008092100080921000800000000DA
:10009000000000000000000000000000092100082E
:1000A0000921000809210008092100080921000888
:1000B0000921000809210008092100080921000878
:1000C0000921000809210008092100080921000868
:1000D0000921000809210008251C00080000000073
:1000E000092100080921000809210008000000007A
:1000F00000000000000000000000000009210008CE
:100100000000000009210008092100080921000859
:1001100000000000000000000000000000000000DF
:100120000921000809210008092100080921000807
:10013000092100080000000000000000000000008D
:10014000000000000000000000000000092100087D
:1001500009210008092100080921000809210008D7
:10016000092100080921000800000000000000002B
:10017000000000000000000000000000000000007F
:10018000000000000921000800000000000000003D
:040190000921000839
:1001A00010B5054C237833B9044B13B10448AFF3B1
:1001B00000800123237010BDD40100200000000046
:1001C00088AD000808B5034B1BB103490348AFF3E2
:1001D000008008BD00000000D801002088AD0008A4
:1001E00001F0FF01102A2BDB10F0070F08D010F8E8
:1001F000013B013A8B422DD010F0070F42B3F6D1EC
:10020000F0B441EA012141EA014122F007047FF004
:1002100000070023F0E80256083C85EA010586EA5B
:10022000010685FA47F5A3FA87F586FA47F6A5FA97
:1002300087F68EB9EED1F0BC01F0FF0102F00702A3
:1002400032B110F8013B013A83EA010313B1F8D14E
:100250000020704701387047002D06BF354603382F
:10026000073815F0010F07D1013015F4807F02BF68
:10027000013015F4C03F0130F0BC0138704700BFB9
:10028000034613F8012B002AFBD1181A01387047D6
:1002900081F0004102E000BF83F0004330B54FEA37
:1002A00041044FEA430594EA050F08BF90EA020FA4
:1002B0001FBF54EA000C55EA020C7FEA645C7FEA37
:1002C000655C00F0E2804FEA5454D4EB5555B8BF5A
:1002D0006D420CDD2C4480EA020281EA030382EACB
:1002E000000083EA010180EA020281EA0303362D5D
:1002F00088BF30BD11F0004F4FEA01314FF4801C30
:100300004CEA113102D0404261EB410113F0004F41
:100310004FEA03334CEA133302D0524263EB4303F8
:1003200094EA050F00F0A780A4F10104D5F1200E96
:100330000DDB02FA0EFC22FA05F2801841F10001F1
:1003400003FA0EF2801843FA05F359410EE0A5F1C5
:1003500020050EF1200E012A03FA0EFC28BF4CF0F6
:10036000020C43FA05F3C01851EBE37101F00045AC
:1003700007D54FF0000EDCF1000C7EEB00006EEBB9
:100380000101B1F5801F1BD3B1F5001F0CD3490843
:100390005FEA30004FEA3C0C04F101044FEA44529A
:1003A00012F5800F80F09A80BCF1004F08BF5FEA21
:1003B000500C50F1000041EB045141EA050130BD01
:1003C0005FEA4C0C404141EB0101013C28BFB1F513
:1003D000801FE9D291F0000F04BF01460020B1FA5E
:1003E00081F308BF2033A3F10B03B3F120020CDA31
:1003F0000C3208DD02F1140CC2F10C0201FA0CF00F
:1004000021FA02F10CE002F11402D8BFC2F1200C73
:1004100001FA02F120FA0CFCDCBF41EA0C01904029
:10042000E41AA2BF01EB0451294330BD6FEA040472
:100430001F3C1CDA0C340EDC04F11404C4F120025D
:1004400020FA04F001FA02F340EA030021FA04F36F
:1004500045EA030130BDC4F10C04C4F1200220FAC6
:1004600002F001FA04F340EA0300294630BD21FA04
:1004700004F0294630BD94F0000F83F4801306BFCA
:1004800081F480110134013D4EE77FEA645C18BFBE
:100490007FEA655C29D094EA050F08BF90EA020F55
:1004A00005D054EA000C04BF1946104630BD91EA4D
:1004B000030F1EBF0021002030BD5FEA545C05D150
:1004C0004000494128BF41F0004130BD14F580048F
:1004D0003CBF01F5801130BD01F0004545F0FE4103
:1004E00041F470014FF0000030BD7FEA645C1ABF38
:1004F000194610467FEA655C1CBF0B46024650EA6F
:10050000013406BF52EA033591EA030F41F400219A
:1005100030BD00BF90F0000F04BF0021704730B520
:100520004FF4806404F132044FF000054FF00001F5
:1005300050E700BF90F0000F04BF0021704730B5B6
:100540004FF4806404F1320410F0004548BF40428B
:100550004FF000013EE700BF42004FEAE2014FEAE0
:1005600031014FEA02701FBF12F07F4393F07F4FBB
:1005700081F06051704732F07F4208BF704793F0BE
:100580007F4F04BF41F40021704730B54FF46074D1
:1005900001F0004521F000411CE700BF50EA0102D4
:1005A00008BF704730B54FF000050AE050EA01027D
:1005B00008BF704730B511F0004502D5404261EBED
:1005C00041014FF4806404F132045FEA915C3FF42E
:1005D000D8AE4FF003025FEADC0C18BF03325FEACB
:1005E000DC0C18BF033202EBDC02C2F1200300FA7C
:1005F00003FC20FA02F001FA03FE40EA0E0021FAA1
:1006000002F11444BDE600BF70B54FF0FF0C4CF48E
:10061000E06C1CEA11541DBF1CEA135594EA0C0F40
:1006200095EA0C0F00F0DEF82C4481EA030621EA7B
:100630004C5123EA4C5350EA013518BF52EA0335B6
:1006400041F4801143F4801338D0A0FB02CE4FF068
:100650000005E1FB02E506F00042E0FB03E54FF098
:100660000006E1FB03569CF0000F18BF4EF0010E90
:10067000A4F1FF04B6F5007F64F5407404D25FEA8C
:100680004E0E6D4146EB060642EAC62141EA55513F
:100690004FEAC52040EA5E504FEACE2EB4F1FD0C81
:1006A00088BFBCF5E06F1ED8BEF1004F08BF5FEAFF
:1006B000500E50F1000041EB045170BD06F00046B1
:1006C00046EA010140EA020081EA0301B4EB5C045E
:1006D000C2BFD4EB0C0541EA045170BD41F4801156
:1006E0004FF0000E013C00F3AB8014F1360FDEBF7B
:1006F000002001F0004170BDC4F10004203C35DA57
:100700000C341BDC04F11404C4F1200500FA05F3D9
:1007100020FA04F001FA05F240EA020001F000427A
:1007200021F0004110EBD37021FA04F642EB0601F0
:100730005EEA430E08BF20EAD37070BDC4F10C041A
:10074000C4F1200500FA04F320FA05F001FA04F2DE
:1007500040EA020001F0004110EBD37041F10001CA
:100760005EEA430E08BF20EAD37070BDC4F12005D5
:1007700000FA05F24EEA020E20FA04F301FA05F23D
:1007800043EA020321FA04F001F0004121FA04F2E5
:1007900020EA020000EBD3705EEA430E08BF20EAB5
:1007A000D37070BD94F0000F0FD101F000464000EF
:1007B00041EB010111F4801F08BF013CF7D041EA71
:1007C000060195F0000F18BF704703F00046520075
:1007D00043EB030313F4801F08BF013DF7D043EA46
:1007E0000603704794EA0C0F0CEA135518BF95EAFC
:1007F0000C0F0CD050EA410618BF52EA4306D1D183
:1008000081EA030101F000414FF0000070BD50EAA1
:10081000410606BF1046194652EA430619D094EA2B
:100820000C0F02D150EA013613D195EA0C0F05D115
:1008300052EA03361CBF104619460AD181EA030169
:1008400001F0004141F0FE4141F470014FF0000021
:1008500070BD41F0FE4141F4780170BD70B54FF0BC
:10086000FF0C4CF4E06C1CEA11541DBF1CEA13553C
:1008700094EA0C0F95EA0C0F00F0A7F8A4EB05041E
:1008800081EA030E52EA03354FEA013100F0888015
:100890004FEA03334FF0805545EA131343EA1263DE
:1008A0004FEA022245EA111545EA10654FEA002693
:1008B0000EF000419D4208BF964244F1FD0404F54C
:1008C000407402D25B084FEA3202B61A65EB0305A8
:1008D0005B084FEA32024FF480104FF4002CB6EB65
:1008E000020E75EB030E22BFB61A754640EA0C00E5
:1008F0005B084FEA3202B6EB020E75EB030E22BF25
:10090000B61A754640EA5C005B084FEA3202B6EB65
:10091000020E75EB030E22BFB61A754640EA9C0024
:100920005B084FEA3202B6EB020E75EB030E22BFF4
:10093000B61A754640EADC0055EA060E18D04FEAB2
:10094000051545EA16754FEA06164FEAC30343EA52
:1009500052734FEAC2025FEA1C1CC0D111F4801F1F
:100960000BD141EA00014FF000004FF0004CB6E718
:1009700011F4801F04BF01430020B4F1FD0C88BFB7
:10098000BCF5E06F3FF6AFAEB5EB030C04BFB6EBC2
:10099000020C5FEA500C50F1000041EB045170BDB5
:1009A0000EF0004E4EEA113114EB5C04C2BFD4EBE2
:1009B0000C0541EA045170BD41F480114FF0000E66
:1009C000013C90E645EA060E8DE60CEA135594EAE2
:1009D0000C0F08BF95EA0C0F3FF43BAF94EA0C0FE5
:1009E0000AD150EA01347FF434AF95EA0C0F7FF45A
:1009F00025AF104619462CE795EA0C0F06D152EAAE
:100A000003353FF4FDAE1046194622E750EA410691
:100A100018BF52EA43067FF4C5AE50EA41047FF4A2
:100A20000DAF52EA43057FF4EBAE12E74FF0FF3C07
:100A300006E000BF4FF0010C02E000BF4FF0010CD8
:100A40004DF804CD4FEA410C7FEA6C5C4FEA430C51
:100A500018BF7FEA6C5C1BD001B050EA410C0CBFA0
:100A600052EA430C91EA030F02BF90EA020F002002
:100A7000704710F1000F91EA030F58BF994208BF69
:100A800090422CBFD8176FEAE37040F00100704726
:100A90004FEA410C7FEA6C5C02D150EA013C07D17D
:100AA0004FEA430C7FEA6C5CD6D152EA033CD3D0C8
:100AB0005DF8040B704700BF8446104662468C46C2
:100AC0001946634600E000BF01B5FFF7B7FF0028F5
:100AD00048BF10F1000F01BD4DF808EDFFF7F4FF1E
:100AE0000CBF012000205DF808FB00BF4DF808EDA9
:100AF000FFF7EAFF34BF012000205DF808FB00BFCC
:100B00004DF808EDFFF7E0FF94BF012000205DF8ED
:100B100008FB00BF4DF808EDFFF7CEFF94BF0120A2
:100B200000205DF808FB00BF4DF808EDFFF7C4FF9B
:100B300034BF012000205DF808FB00BF4FEA410CE4
:100B40007FEA6C5C02D150EA013C0AD14FEA430CC7
:100B50007FEA6C5C02D152EA033C02D14FF0000004
:100B600070474FF0010070474FEA410212F5001242
:100B700015D211D56FF47873B3EB625212D94FEAE4
:100B8000C12343F0004343EA505311F0004F23FACE
:100B900002F018BF404270474FF00000704750EA23
:100BA000013005D111F0004008BF6FF000407047E0
:100BB0004FF00000704700BF4A0011D212F500123A
:100BC00011D20DD56FF47873B3EB62520ED44FEAA5
:100BD000C12343F0004343EA505323FA02F0704725
:100BE0004FF00000704750EA013002D14FF0FF3063
:100BF00070474FF0000070474FEA4102B2F1E04306
:100C000024BFB3F5001CDCF1FE5C0DD901F0004CF3
:100C10004FEAC0024CEA5070B2F1004F40EB830043
:100C200008BF20F00100704711F0804F21D113F16F
:100C30003872BCBF01F00040704741F480114FEAA8
:100C40005252C2F11802C2F1200C10FA0CF320FA31
:100C500002F018BF40F001004FEAC1234FEAD3234E
:100C600003FA0CFC40EA0C0023FA02F34FEA4303B8
:100C7000CCE77FEA625307D150EA01331EBF4FF041
:100C8000FE4040F44000704701F0004040F0FE405C
:100C900040F40000704700BF53B94AB9002908BFAB
:100CA00000281CBF4FF0FF314FF0FF3000F0BEB9FD
:100CB000ADF1080C6DE904CE00F03CF8DDF804E07D
:100CC000DDE9022304B0704738B500220023044652
:100CD0000D46FFF70BFF28B920462946BDE83840EE
:100CE00000F00AB8204605F1004100F005F8404246
:100CF00061EB410138BD00BFD0B50C4B0022064668
:100D00000F46FFF781FCFFF757FF0446FFF702FC91
:100D1000074B0022FFF778FC02460B463046394667
:100D2000FFF7BAFAFFF748FF2146D0BD0000F03DBB
:100D30000000F0412DE9F047089D8E4604468846A4
:100D4000002B4AD18A42174662D9B2FA82F64EB1D6
:100D5000C6F1200301FA06F820FA03F3B74043EA8C
:100D60000808B4404FEA174E1FFA87FCB8FBFEF1A3
:100D7000230C0EFB118843EA084301FB0CF29A4254
:100D800009D9FB1801F1FF3080F0EA809A4240F265
:100D9000E78002393B449A1AA3B2B2FBFEF00EFB85
:100DA000102243EA024300FB0CFC9C4509D9FB18C6
:100DB00000F1FF3280F0D6809C4540F2D3803B4466
:100DC000023840EA0140A3EB0C0300211DB1F340BF
:100DD0000022C5E90032BDE8F0878B4205D90DB18C
:100DE000C5E9000100210846F5E7B3FA83F10029BF
:100DF00046D1734502D3824200F20581841A6EEB1C
:100E0000030201209046002DE5D0C5E90048E2E745
:100E1000002A00F09080B2FA82F6002E40F0A48002
:100E20008A1A030C4FEA174E80B2BCB20121B2FB02
:100E3000FEFC0EFB1C2243EA024304FB0CF29A4226
:100E400007D9FB180CF1FF3802D29A4200F2E08079
:100E5000C4469B1AB3FBFEF20EFB123340EA034377
:100E600002FB04F49C4207D9FB1802F1FF3002D2C6
:100E70009C4200F2CA8002461B1B42EA0C40A5E7D6
:100E8000C1F120068B4022FA06F71F430EFA01F447
:100E900020FA06F32EFA06FE4FEA1749234300FA1A
:100EA00001F81FFA87FCBEFBF9F01C0C09FB10EEE1
:100EB00044EA0E4400FB0CFEA64502FA01F209D9F1
:100EC0003C1900F1FF3A80F09C80A64540F29980E1
:100ED00002383C44A4EB0E041FFA83FEB4FBF9F382
:100EE00009FB13444EEA044403FB0CFCA44508D957
:100EF0003C1903F1FF3E80F08280A4457FD9023B7C
:100F00003C4443EA0040A4EB0C04A0FB02EC644523
:100F10007346E14662D35FD05DB1B8EB030264EB88
:100F2000090404FA06F622FA01F31E43CC40C5E98F
:100F3000006400214FE7B1FBF2FC010C41EA0E41D5
:100F400080B240EA01423B4638463C46B846BE467F
:100F50002026B1FBF7F1A2EB080241EA0C4166E75B
:100F6000014618E710462CE7C6F120022EFA02F3DC
:100F7000B740B14020FA02F24FEA174E0A43B3FBE2
:100F8000FEF8BCB20EFB1833110C41EA034108FB1A
:100F900004F9B04089454FEA104380B23ED9791830
:100FA00008F1FF3C01D289451FD8A1EB0901B1FB33
:100FB000FEF909FB04F80EFB191192B242EA014254
:100FC000424529D2BA1809F1FF31C4D24245C2D2F2
:100FD000A9F102013A44BEE7F0459DD2BEEB0203FF
:100FE0006CEB070C0138E14696E7A7EB0909494489
:100FF000A8F1020CB1FBFEF909FB04F8DBE773462C
:101000007FE7504666E70846FDE63B44023A33E791
:10101000ACF1020C3B441CE749469CE7A1EB0901FB
:10102000C446B1FBFEF909FB04F8C4E7704700BFF2
:1010300080B588B000AF07F10C0300221A605A6037
:101040009A60DA601A610023BB60314B1B6B304A37
:1010500043F0040313632E4B1B6B03F00403BB60CC
:10106000BB6800237B602A4B1B6B294A43F00103BA
:101070001363274B1B6B03F001037B607B6800232A
:101080003B60234B1B6B224A43F002031363204B4C
:101090001B6B03F002033B603B6801224FF40051DD
:1010A0001C4801F009FC00224FF470411A4801F07D
:1010B00003FC4FF40053FB6001233B6100237B6181
:1010C0000023BB6107F10C031946124801F058FADE
:1010D0004FF47043FB6001233B6100237B610023DD
:1010E000BB6107F10C0319460B4801F049FA40F2C5
:1010F0000743FB6000233B6101237B6107F10C0385
:101100001946054801F03CFA00BF2037BD4680BDB6
:1011100000380240000802400004024080B500AFE1
:10112000124B134A1A60114B124A5A600F4B00229D
:101130009A600E4B0022DA600C4B4FF480421A6129
:101140000A4B00225A61094B00229A61074B002288
:10115000DA61064B00221A62044801F0E1FB034603
:10116000002B01D000F030FD00BF80BDF001002059
:1011700000540040801A060080B58AB000AF786045
:1011800007F1140300221A605A609A60DA601A614B
:101190007B681B68194A93422CD100233B61184B92
:1011A0001B6B174A43F002031363154B1B6B03F0D1
:1011B00002033B613B694FF440737B611223BB61C7
:1011C0000123FB6103233B6204237B6207F11403C9
:1011D00019460C4801F0D4F90023FB60084B1B6C46
:1011E000074A43F400131364054B1B6C03F400130C
:1011F000FB60FB6800BF2837BD4680BD005400403F
:10120000003802400004024080B586B004AF4FF4BD
:101210007A730293012301932C4B009301237522CF
:10122000D0212B4801F0BAFD284B1B78DBB2682B8C
:1012300013D0264B1B78DBB2702B0ED0234B1B78C0
:10124000DBB2712B09D0214B1B78DBB2732B04D09E
:101250001E4B1B78DBB2982B33D10023FB714FF46C
:101260007A73029301230193FB1D009301236B22E8
:10127000D021174801F098FC0346002B01D0012330
:1012800020E00723FB714FF47A730293012301934B
:10129000FB1D009301231922D0210D4801F084FC8D
:1012A0000023FB714FF47A73029301230193FB1D1A
:1012B000009301231C22D021054801F075FC002376
:1012C00000E0012318460837BD4680BD44020020D7
:1012D000F001002080B58EB004AF78604FF47A73CF
:1012E00002930E23019307F10C03009301233B2289
:1012F000D021454801F052FD0346002B7FD13B7BB6
:101300001BB21B021AB27B7B1BB21343FB84BB7B59
:101310001BB21B021AB2FB7B1BB21343BB843B7C88
:101320001BB21B021AB27B7C1BB213437B843B7D36
:101330001BB21B021AB27B7D1BB213433B84BB7DE5
:101340001BB21B021AB2FB7D1BB21343FB833B7E15
:101350001BB21B021AB27B7E1BB21343BB83B7F9CD
:10136000263007EE903AB8EEE77ADFED286AC7EE4E
:10137000267A7B68C3ED007AB7F9243007EE903AFD
:10138000B8EEE77ADFED216AC7EE267A7B68C3ED17
:10139000017AB7F9223007EE903AB8EEE77ADFED3E
:1013A0001B6AC7EE267A7B68C3ED027AB7F9203054
:1013B00007EE903AB8EEE77ADFED156AC7EE267AC7
:1013C0007B68C3ED037AB7F91E3007EE903AB8EEAA
:1013D000E77ADFED0F6AC7EE267A7B68C3ED047A01
:1013E000B7F91C3007EE903AB8EEE77ADFED086AFD
:1013F000C7EE267A7B68C3ED057A002300E001235F
:1014000018462837BD4680BDF00100200000804608
:101410000000034380B584B000AF0346FB7197F929
:101420000730002BB8BF5B42DBB21A4641F26703BC
:1014300002FB03F3294A82FB03125211DB17D31A72
:10144000FB81FB8941F26702934202D941F26703B3
:10145000FB8197F90730002B0CDD01224FF48051FE
:101460001F4801F029FA00224FF400511C4801F0F6
:1014700023FA1EE097F90730002B0CDA00224FF414
:101480008051174801F018FA01224FF40051144816
:1014900001F012FA0DE000224FF48051104801F0E3
:1014A0000BFA00224FF400510D4801F005FA002319
:1014B000FB810C4B1B68FA895A6397F90730002BA4
:1014C00004DAFB895B429BB21BB201E0B7F90E3034
:1014D000054A138000BF1037BD4680BD1F85EB5104
:1014E00000040240B00200206402002080B584B0F5
:1014F00000AF0346FB7197F90730002BB8BF5B4282
:10150000DBB21A4641F2670302FB03F3294A82FB6E
:1015100003125211DB17D31AFB81FB8941F26702D8
:10152000934202D941F26703FB8197F90730002B00
:101530000CDD01224FF480411F4801F0BDF900226B
:101540004FF400411C4801F0B7F91EE097F907304D
:10155000002B0CDA00224FF48041174801F0ACF95F
:1015600001224FF40041144801F0A6F90DE00022D9
:101570004FF48041104801F09FF900224FF40041E0
:101580000D4801F099F90023FB810C4B1B68FA8987
:101590009A6397F90730002B04DAFB895B429BB210
:1015A0001BB201E0B7F90E30054A138000BF1037B7
:1015B000BD4680BD1F85EB5100040240B0020020F3
:1015C0006602002080B500AF0020FFF723FF002057
:1015D000FFF78CFF00BF80BD80B582B000AF7860A0
:1015E0007868FEF74DFE03469AB2C823796803482F
:1015F00003F0E1FB00BF0837BD4680BDF8020020C4
:1016000080B584B000AF786005222149786805F084
:10161000E6FB0346002B37D10023FB600023BB60B1
:101620007B68581D07F1080307F10C02194905F002
:101630005DFB0346022B28D1FB68642B01DD64238C
:10164000FB60FB6813F1640F02DA6FF06303FB6069
:10165000BB68642B01DD6423BB60BB6813F1640FBE
:1016600002DA6FF06303BB600B4B1B78DBB2002B1D
:101670000BD1FB685BB21846FFF7CCFEBB685BB2D0
:101680001846FFF733FF00E000BF1037BD4680BDAE
:10169000A0AD0008A8AD00086302002080B584B0AA
:1016A00000AF78607B681B68184A934229D1184BB9
:1016B0001B78FB73FB7B0A2B0CD1164B1B781A464D
:1016C000154B00219954154B01221A70114B002221
:1016D0001A7010E0FB7B0D2B0DD00E4B1B783E2BB0
:1016E00009D80C4B1B785A1CD1B20A4A1170194602
:1016F000094AFB7B535401220549094803F0E6FBE4
:1017000000E000BF1037BD4680BD00BF0044004070
:10171000A8020020A902002068020020AA020020DE
:10172000F80200202DE9F04FC7B010AF00F0EEFC3A
:1017300000F0E0F9FFF77CFCFFF7F0FC00F084FB21
:1017400000F040FC4FF4967000F052FD00218648F6
:1017500002F038FF0421844802F034FF824B1B68FA
:101760005A6C814B1B6842F400425A64FFF72AFF0F
:1017700001227E497E4803F0A9FB012387F8D73078
:1017800015E097F8D7309BB25B0099B20A2302228A
:10179000784801F035FD0346002B03D1764A97F8CF
:1017A000D730137097F8D730013387F8D73097F9CF
:1017B000D730002BE5DA704B1B78682B1DD1FFF773
:1017C00023FD0346002B2DD16C4B01221A70002300
:1017D000C7F8D0300CE04FF40051694801F085F8AB
:1017E000642000F005FDD7F8D0300133C7F8D030C1
:1017F000D7F8D030052BEEDD14E00023C7F8CC304D
:101800000CE04FF400515E4801F06FF8502000F0FA
:10181000EFFCD7F8CC300133C7F8CC30D7F8CC3058
:10182000092BEEDD5748FFF7D7FE0023C7F8C83075
:101830000023C7F8C4300023C7F8C030002387F85E
:10184000BF3000F0C9FCC7F8B80001214E4801F0D4
:101850001BF80346002B0CBF01230023DBB287F8E3
:10186000B7300221484801F00FF80346002B0CBFA7
:1018700001230023DBB287F8B6300421424801F08F
:1018800003F80346002B0CBF01230023DBB287F8CB
:10189000B5304FF480613C4800F0F6FF0346002B62
:1018A0000CBF01230023DBB287F8B43097F9B430C2
:1018B000DB005AB297F9B5309B005BB213435AB2C2
:1018C00097F9B6305B005BB213435AB297F9B73061
:1018D00013435BB2DAB22D4B1A702C4B1B78DBB280
:1018E000002B14BF01230023DBB21A46284B1A70C9
:1018F000274B1B78DBB2002B01D0FFF763FED7F834
:10190000B820D7F8C830D31A132B60D9D7F8B8301D
:10191000C7F8C830194B1B78002B3DD007F11C03CA
:101920001846FFF7D7FC0346002B10D1002387F899
:10193000BF3072B600BF174B1D4607F11C040FCC19
:101940000FC594E8030085E8030062B63FE097F80E
:10195000BF30013387F8BF3097F8BF30092B36D935
:10196000064B00221A7032E0B0020020A8020020CC
:10197000F8020020F0010020610200206002002037
:1019800000080240B0AD00080004024062020020DE
:101990006302002048020020D7F8B820D7F8C030F2
:1019A000D31A40F6B732934211D9D7F8B830C7F8F6
:1019B000C030002387F8BF30FFF726FC0346002B1A
:1019C0000CBF01230023DBB21A46434B1A70D7F831
:1019D000B820D7F8C430D31A312B57D9D7F8B8303C
:1019E000C7F8C4303D4B1B681846FEF7B5FD0446EA
:1019F0000D463A4B5B681846FEF7AEFD80468946B9
:101A0000364B9B681846FEF7A7FD82468B46334B44
:101A1000DB681846FEF7A0FDC7E904012F4B1B69E0
:101A20001846FEF799FDC7E902012C4B5B69184681
:101A3000FEF792FD97F8B7307B6097F8B6203A60D2
:101A400097F8B52097F8B43007F134060F930E924B
:101A50003A680D927B680C93CDE90A0197ED027B01
:101A60008DED087B97ED047B8DED067BCDE904AB16
:101A7000CDE90289CDE90045194A8021304605F0BB
:101A8000DDF807F134031846FFF7A6FD154B1B7868
:101A9000002B05D0134B00221A701348FFF7B0FD3E
:101AA000D7F8B820114BA3FB02139B094FF47A71AE
:101AB00001FB03F3D31A40F2F31293428CBF0123CC
:101AC0000023DBB21A464FF40051094800F0F4FE3F
:101AD000052000F08DFBB4E66002002048020020E3
:101AE000D0AD0008AA02002068020020D34D621089
:101AF0000008024080B594B000AF07F12003302207
:101B00000021184605F063F907F10C0300221A6062
:101B10005A609A60DA601A610023BB60284B1B6C24
:101B2000274A43F080531364254B1B6C03F080530A
:101B3000BB60BB6800237B60224B1B6823F44043DF
:101B4000204A43F4004313601E4B1B6803F44043D8
:101B50007B607B6802233B620123FB6210233B63B3
:101B60000223BB630023FB6308233B64A8237B643D
:101B70000423BB640723FB6407F12003184602F02B
:101B800021F80346002B01D000F01EF80F23FB6064
:101B900002233B6100237B614FF48053BB61002330
:101BA000FB6107F10C030221184602F083FA034699
:101BB000002B01D000F008F800BF5037BD4680BDB3
:101BC000003802400070004080B400AF72B600BF21
:101BD00000BFFDE780B483B000AF00237B60104BF3
:101BE0005B6C0F4A43F4804353640D4B5B6C03F40E
:101BF00080437B607B6800233B60094B1B6C084A79
:101C000043F080531364064B1B6C03F080533B601E
:101C10003B6800BF0C37BD465DF8047B704700BFD2
:101C20000038024080B500AF024803F075F900BFEC
:101C300080BD00BFF802002080B400AF00BFFDE708
:101C400080B400AF00BFFDE780B400AF00BFFDE788
:101C500080B400AF00BFFDE780B400AF00BFFDE778
:101C600080B400AF00BFBD465DF8047B704780B410
:101C700000AF00BFBD465DF8047B704780B400AF85
:101C800000BFBD465DF8047B704780B500AF00F033
:101C90008FFA00BF80BD80B400AF01231846BD4657
:101CA0005DF8047B704780B582B000AF7860396022
:101CB00005F0F2F8034616221A604FF0FF3318467B
:101CC0000837BD4680BD80B582B000AF78604FF068
:101CD000FF317868FFF7E7FF00BFFDE780B586B00A
:101CE00000AFF860B9607A6000237B610AE0AFF36F
:101CF00000800146BB685A1CBA60CAB21A707B6980
:101D000001337B617A697B689A42F0DB7B68184615
:101D10001837BD4680BD80B586B000AFF860B960A9
:101D20007A6000237B6109E0BB685A1CBA601B78AB
:101D30001846AFF300807B6901337B617A697B6869
:101D40009A42F1DB7B6818461837BD4680BD80B4E7
:101D500083B000AF78604FF0FF3318460C37BD46B4
:101D60005DF8047B704780B483B000AF7860396061
:101D70003B684FF400525A60002318460C37BD46AA
:101D80005DF8047B704780B483B000AF78600123B6
:101D900018460C37BD465DF8047B704780B485B0AB
:101DA00000AFF860B9607A60002318461437BD466A
:101DB0005DF8047B7047000080B586B000AF7860A6
:101DC000144A154BD31A7B617B693B61134B1B682B
:101DD000002B02D1114B124A1A60104B1A687B6813
:101DE00013443A699A4207D205F056F803460C228A
:101DF0001A604FF0FF3309E0084B1B68FB60074B8C
:101E00001A687B681344054A1360FB681846183744
:101E1000BD4680BD0000012000040000AC0200208F
:101E20009004002080B400AF064BD3F88830054AF8
:101E300043F47003C2F8883000BFBD465DF8047BF0
:101E4000704700BF00ED00E080B588B000AF3B1DDB
:101E500000221A605A609A60DA601A615A619A61C7
:101E6000284B294A1A60274B13225A60254B00221F
:101E70009A60244B41F26702DA60224B00221A6119
:101E8000204B00225A611F4B80229A611D4802F0AC
:101E9000F1FA0346002B01D0FFF796FE194802F035
:101EA00038FB0346002B01D0FFF78EFE60237B60DA
:101EB0000023BB600023FB6000233B6100237B61A8
:101EC0000023BB610023FB613B1D002219460D4826
:101ED00002F028FC0346002B01D0FFF775FE3B1DE6
:101EE00004221946074802F01DFC0346002B01D0CE
:101EF000FFF76AFE034800F02BF800BF2037BD460D
:101F000080BD00BFB00200200000014080B485B059
:101F100000AF78607B681B680B4A93420DD10023A9
:101F2000FB600A4B5B6C094A43F001035364074BA7
:101F30005B6C03F00103FB60FB6800BF1437BD4618
:101F40005DF8047B704700BF00000140003802408C
:101F500080B588B000AF786007F10C0300221A60EA
:101F60005A609A60DA601A617B681B68124A934271
:101F70001ED10023BB60114B1B6B104A43F00103C1
:101F800013630E4B1B6B03F00103BB60BB684FF484
:101F90004073FB6002233B6100237B610223BB6132
:101FA0000123FB6107F10C031946054800F0E8FA2C
:101FB00000BF2037BD4680BD000001400038024010
:101FC0000000024080B500AF114B124A1A60104B5E
:101FD0004FF461225A600E4B00229A600C4B002293
:101FE000DA600B4B00221A61094B0C225A61084B34
:101FF00000229A61064B0022DA61054802F08BFE4E
:102000000346002B01D0FFF7DFFD00BF80BD00BFFE
:10201000F80200200044004080B58AB000AF78602C
:1020200007F1140300221A605A609A60DA601A619C
:102030007B681B681D4A934233D100233B611C4BD4
:102040001B6C1B4A43F400331364194B1B6C03F4E1
:1020500000333B613B690023FB60154B1B6B144A4B
:1020600043F001031363124B1B6B03F00103FB608E
:10207000FB680C237B610223BB610023FB6103230C
:102080003B6207237B6207F114031946094800F0FD
:1020900077FA00220021262000F0A9F9262000F07E
:1020A000C2F900BF2837BD4680BD00BF00440040D4
:1020B0000038024000000240DFF834D0FFF7B2FEE3
:1020C0000C480D490D4A002302E0D458C450043393
:1020D000C4188C42F9D30A4A0A4C002301E0136069
:1020E0000432A242FBD304F0DDFEFFF71BFB704776
:1020F0000000012000000020D40100207CB2000874
:10210000D401002090040020FEE7000080B500AF5D
:102110000E4B1B680D4A43F4007313600B4B1B6896
:102120000A4A43F480631360084B1B68074A43F470
:1021300080731360032000F04FF90F2000F008F8BF
:10214000FFF748FD0023184680BD00BF003C024059
:1021500080B582B000AF7860124B1A68124B1B78C2
:1021600019464FF47A73B3FBF1F3B2FBF3F318465D
:1021700000F067F90346002B01D001230EE07B68D5
:102180000F2B0AD8002279684FF0FF3000F02FF9AA
:10219000064A7B681360002300E0012318460837D5
:1021A000BD4680BD00000020080000200400002083
:1021B00080B400AF064B1B781A46064B1B681344CD
:1021C000044A136000BFBD465DF8047B704700BF42
:1021D000080000204003002080B400AF034B1B68C0
:1021E0001846BD465DF8047B704700BF40030020E1
:1021F00080B584B000AF7860FFF7EEFFB8607B6811
:10220000FB60FB68B3F1FF3F05D00A4B1B781A4611
:10221000FB681344FB6000BFFFF7DEFF0246BB68AC
:10222000D31AFA689A42F7D800BF00BF1037BD46EC
:1022300080BD00BF0800002080B485B000AF78608A
:102240007B6803F00703FB600C4BDB68BB60BA687C
:102250004FF6FF031340BB60FB681A02BB681343D1
:1022600043F0BF6343F40033BB60044ABB68D360F0
:1022700000BF1437BD465DF8047B704700ED00E0F9
:1022800080B400AF044BDB681B0A03F00703184659
:10229000BD465DF8047B704700ED00E080B483B07C
:1022A00000AF0346FB7197F90730002B0BDBFB797E
:1022B00003F01F02074997F907305B09012000FA74
:1022C00002F241F8232000BF0C37BD465DF8047BC5
:1022D000704700BF00E100E080B483B000AF034668
:1022E0003960FB7197F90730002B0ADB3B68DAB2E3
:1022F0000C4997F907301201D2B20B4483F800233E
:102300000AE03B68DAB20849FB7903F00F03043BAB
:102310001201D2B20B441A7600BF0C37BD465DF8ED
:10232000047B704700E100E000ED00E080B489B07C
:1023300000AFF860B9607A60FB6803F00703FB61E7
:10234000FB69C3F10703042B28BF0423BB61FB69AE
:102350000433062B02D9FB69033B00E000237B61B9
:102360004FF0FF32BB6902FA03F3DA43BB681A404D
:102370007B699A404FF0FF317B6901FA03F3D9433F
:102380007B680B40134318462437BD465DF8047B39
:102390007047000080B582B000AF78607B68013B79
:1023A000B3F1807F01D301230FE00A4A7B68013B30
:1023B00053600F214FF0FF30FFF78EFF054B0022D7
:1023C0009A60044B07221A60002318460837BD465E
:1023D00080BD00BF10E000E080B582B000AF786043
:1023E0007868FFF729FF00BF0837BD4680BD80B57C
:1023F00086B000AF0346B9607A60FB7300237B614F
:10240000FFF73EFF78617A68B9687869FFF78EFF59
:10241000024697F90F3011461846FFF75DFF00BFDF
:102420001837BD4680BD80B582B000AF0346FB7152
:1024300097F907301846FFF731FF00BF0837BD4650
:1024400080BD80B582B000AF78607868FFF7A2FFEA
:10245000034618460837BD4680BD80B584B000AF3E
:1024600078607B689B6DFB60FFF7B6FEB8607B68A9
:1024700093F83530DBB2022B08D07B6880225A6596
:102480007B68002283F83420012352E07B681B68BC
:102490001A687B681B6822F016021A607B681B684A
:1024A0005A697B681B6822F080025A617B681B6C4A
:1024B000002B03D17B689B6C002B07D07B681B68CB
:1024C0001A687B681B6822F008021A607B681B6828
:1024D0001A687B681B6822F001021A6013E0FFF79C
:1024E0007BFE0246BB68D31A052B0CD97B682022E1
:1024F0005A657B68032283F835207B68002283F8C5
:102500003420032315E07B681B681B6803F001037C
:10251000002BE4D17B68DB6D3F229A40FB689A6018
:102520007B68012283F835207B68002283F8342001
:10253000002318461037BD4680BD80B483B000AF7D
:1025400078607B6893F83530DBB2022B04D07B686F
:1025500080225A6501230CE07B68052283F8352030
:102560007B681B681A687B681B6822F001021A608E
:10257000002318460C37BD465DF8047B7047000009
:1025800080B489B000AF7860396000237B6100239C
:102590003B610023BB610023FB6159E10122FB6920
:1025A00002FA03F37B613B681B687A6913403B6165
:1025B0003A697B699A4240F048813B685B6803F066
:1025C0000303012B05D03B685B6803F00303022B78
:1025D00030D17B689B68BB61FB695B00032202FA18
:1025E00003F3DB43BA691340BB613B68DA68FB69FC
:1025F0005B0002FA03F3BA691343BB617B68BA69F3
:102600009A607B685B68BB610122FB6902FA03F395
:10261000DB43BA691340BB613B685B681B0903F08D
:102620000102FB6902FA03F3BA691343BB617B68D9
:10263000BA695A603B685B6803F00303032B17D049
:102640007B68DB68BB61FB695B00032202FA03F372
:10265000DB43BA691340BB613B689A68FB695B0066
:1026600002FA03F3BA691343BB617B68BA69DA60A3
:102670003B685B6803F00303022B23D1FB69DA0894
:102680007B68083253F82230BB61FB6903F0070313
:102690009B000F2202FA03F3DB43BA691340BB61CC
:1026A0003B681A69FB6903F007039B0002FA03F316
:1026B000BA691343BB61FB69DA087B680832B96900
:1026C00043F822107B681B68BB61FB695B00032237
:1026D00002FA03F3DB43BA691340BB613B685B68F2
:1026E00003F00302FB695B0002FA03F3BA691343C8
:1026F000BB617B68BA691A603B685B6803F440336E
:10270000002B00F0A2800023FB60574B5B6C564A05
:1027100043F480435364544B5B6C03F48043FB608D
:10272000FB68524AFB699B08023352F82330BB61B5
:10273000FB6903F003039B000F2202FA03F3DB4360
:10274000BA691340BB617B68494A934219D07B68E0
:10275000484A934213D07B68474A93420DD07B6826
:10276000464A934207D07B68454A934201D10423ED
:1027700008E0072306E0032304E0022302E001232C
:1027800000E00023FA6902F0030292009340BA6964
:102790001343BB613549FB699B080233BA6941F8B1
:1027A0002320384B9B68BB613B69DB43BA6913400C
:1027B000BB613B685B6803F48013002B03D0BA69EC
:1027C0003B691343BB612F4ABB6993602D4BDB68A8
:1027D000BB613B69DB43BA691340BB613B685B6823
:1027E00003F40013002B03D0BA693B691343BB61A8
:1027F000244ABB69D360234B5B68BB613B69DB4305
:10280000BA691340BB613B685B6803F40033002B7B
:1028100003D0BA693B691343BB611A4ABB69536071
:10282000184B1B68BB613B69DB43BA691340BB6152
:102830003B685B6803F48033002B03D0BA693B69C3
:102840001343BB610F4ABB691360FB690133FB6132
:10285000FB690F2B7FF6A2AE00BF00BF2437BD4639
:102860005DF8047B704700BF00380240003801402B
:10287000000002400004024000080240000C024038
:1028800000100240003C014080B485B000AF786089
:102890000B467B807B681A697B881340002B02D033
:1028A0000123FB7301E00023FB73FB7B1846143705
:1028B000BD465DF8047B704780B483B000AF78609C
:1028C0000B467B8013467B707B78002B03D07A8885
:1028D0007B689A6103E07B881A047B689A6100BF79
:1028E0000C37BD465DF8047B704780B485B000AFFF
:1028F00078600B467B807B685B69FB607A88FB684D
:1029000013401A04FB68D9437B880B401A437B6849
:102910009A6100BF1437BD465DF8047B7047000024
:1029200080B584B000AF78607B68002B01D10123B3
:102930002BE17B6893F83D30DBB2002B06D17B683E
:10294000002283F83C207868FEF716FC7B6824227E
:1029500083F83D207B681B681A687B681B6822F03F
:1029600001021A607B681B681A687B681B6842F466
:1029700000421A607B681B681A687B681B6822F437
:1029800000421A6001F04EFDF8607B685B68814A86
:10299000934207D8FB68804A934294BF01230023E7
:1029A000DBB206E0FB687D4A934294BF012300231B
:1029B000DBB2002B01D00123E7E0FB68784AA2FBE1
:1029C00003239B0CBB607B681B685B6823F03F01A3
:1029D0007B681B68BA680A435A607B681B681B6A7D
:1029E00023F03F017B685B686A4A934202D8BB6868
:1029F000013309E0BB684FF4967202FB03F3694AA6
:102A0000A2FB03239B0901337A6812680B4313620C
:102A10007B681B68DB6923F44F4222F0FF027B686E
:102A20005B685C498B4219D8FB68591E7B685B6800
:102A30005B00B1FBF3F3591C40F6FC730B40002B19
:102A40000AD0FB68591E7B685B685B00B1FBF3F33F
:102A50000133C3F30B0351E004234FE07B689B6811
:102A6000002B11D1FB68581E7B6859680B465B0030
:102A70000B44B0FBF3F30133C3F30B03002B0CBF88
:102A800001230023DBB212E0FB68581E7B68596803
:102A90000B469B000B4499000B44B0FBF3F301334E
:102AA000C3F30B03002B0CBF01230023DBB2002B6D
:102AB00001D0012322E07B689B68002B0ED1FB68CC
:102AC000581E7B6859680B465B000B44B0FBF3F360
:102AD0000133C3F30B0343F400430FE0FB68581EBC
:102AE0007B6859680B469B000B4499000B44B0FB74
:102AF000F3F30133C3F30B0343F4404379680968EC
:102B00001343CB617B681B681B6823F0C0017B68A3
:102B1000DA697B681B6A1A437B681B680A431A6080
:102B20007B681B689B6823F4034323F0FF037A68E8
:102B300011697A68D26811437A6812680B4393600E
:102B40007B681B68DB6823F0FF017B685A697B6840
:102B50009B691A437B681B680A43DA607B681B68C1
:102B60001A687B681B6842F001021A607B680022C9
:102B70001A647B68202283F83D207B6800221A6358
:102B80007B68002283F83E20002318461037BD469C
:102B900080BD00BFA08601007F841E00FF083D00AD
:102BA00083DE1B43D34D621080B588B002AFF8605E
:102BB000084611461A4603467B810B463B81134665
:102BC000FB80FFF709FB7861FB6893F83D30DBB2CF
:102BD000202B40F0D9807B690093192301226D4995
:102BE000F86800F0B9FD0346002B01D00223CCE0C9
:102BF000FB6893F83C30012B01D10223C5E0FB6850
:102C0000012283F83C20FB681B681B6803F001036A
:102C1000012B07D0FB681B681A68FB681B6842F031
:102C200001021A60FB681B681A68FB681B6822F4C3
:102C300000621A60FB68212283F83D20FB68402275
:102C400083F83E20FB6800221A64FB683A6A5A62E5
:102C5000FB68BA8C5A85FB685B8D9AB2FB681A8553
:102C6000FB684D4ADA62F8883A8979897B69019371
:102C7000BB6A00930346F86800F0F0FB0346002BA4
:102C800052D0012381E07A69B96AF86800F07EFECB
:102C90000346002B0DD0FB681B6C042B07D1FB688F
:102CA0001B681A68FB681B6842F400721A600123F3
:102CB0006BE0FB685B6A1A78FB681B681A61FB684B
:102CC0005B6A5A1CFB685A62FB681B8D013B9AB217
:102CD000FB681A85FB685B8D9BB2013B9AB2FB686F
:102CE0005A85FB681B685B6903F00403042B1BD146
:102CF000FB681B8D002B17D0FB685B6A1A78FB689A
:102D00001B681A61FB685B6A5A1CFB685A62FB68A5
:102D10001B8D013B9AB2FB681A85FB685B8D9BB2E9
:102D2000013B9AB2FB685A85FB681B8D002BAAD128
:102D30007A69B96AF86800F071FE0346002B0DD07D
:102D4000FB681B6C042B07D1FB681B681A68FB68C7
:102D50001B6842F400721A60012316E0FB681B68CE
:102D60001A68FB681B6842F400721A60FB68202234
:102D700083F83D20FB68002283F83E20FB68002298
:102D800083F83C20002300E0022318461837BD4694
:102D900080BD00BF020010000000FFFF80B58CB0B6
:102DA00002AFF860084611461A4603467B810B467F
:102DB0003B811346FB80FFF70FFA7862FB6893F8BC
:102DC0003D30DBB2202B40F014827B6A0093192344
:102DD00001227B49F86800F0BFFC0346002B01D0BC
:102DE000022307E2FB6893F83C30012B01D1022358
:102DF00000E2FB68012283F83C20FB681B681B682B
:102E000003F00103012B07D0FB681B681A68FB68FD
:102E10001B6842F001021A60FB681B681A68FB68B5
:102E20001B6822F400621A60FB68222283F83D20AE
:102E3000FB68402283F83E20FB6800221A64FB688E
:102E40003A6B5A62FB68BA8E5A85FB685B8D9AB200
:102E5000FB681A85FB685B4ADA62F8883A897989E7
:102E60007B6A0193BB6B00930346F86800F08CFB10
:102E70000346002B01D00123BCE1FB681B8D002B16
:102E800013D100233B62FB681B685B693B62FB68F4
:102E90001B689B693B623B6AFB681B681A68FB689E
:102EA0001B6842F400721A6090E1FB681B8D012BD5
:102EB0001BD1FB681B681A68FB681B6822F48062E0
:102EC0001A600023FB61FB681B685B69FB61FB68A0
:102ED0001B689B69FB61FB69FB681B681A68FB68E0
:102EE0001B6842F400721A6070E1FB681B8D022BB4
:102EF0001BD1FB681B681A68FB681B6822F48062A0
:102F00001A60FB681B681A68FB681B6842F4006261
:102F10001A600023BB61FB681B685B69BB61FB68CF
:102F20001B689B69BB61BB6950E100237B61FB6847
:102F30001B685B697B61FB681B689B697B617B69C4
:102F400044E1FB681B8D032B00F2F180FB681B8DB5
:102F5000012B23D17A6AB96BF86800F0A7FD03460C
:102F6000002B01D0012345E1FB681B681A69FB684F
:102F70005B6AD2B21A70FB685B6A5A1CFB685A62C1
:102F8000FB681B8D013B9AB2FB681A85FB685B8D61
:102F90009BB2013B9AB2FB685A8517E1FB681B8D17
:102FA000022B4ED17B6A0093BB6B00220649F86866
:102FB00000F0D2FB0346002B08D001231AE100BF2A
:102FC000020010000000FFFF04000100FB681B6806
:102FD0001A68FB681B6842F400721A60FB681B6881
:102FE0001A69FB685B6AD2B21A70FB685B6A5A1C8A
:102FF000FB685A62FB681B8D013B9AB2FB681A851D
:10300000FB685B8D9BB2013B9AB2FB685A85FB68FB
:103010001B681A69FB685B6AD2B21A70FB685B6A4C
:103020005A1CFB685A62FB681B8D013B9AB2FB6815
:103030001A85FB685B8D9BB2013B9AB2FB685A858F
:10304000C4E07B6A0093BB6B00226C49F86800F017
:1030500083FB0346002B01D00123CBE0FB681B68F8
:103060001A68FB681B6822F480621A60FB681B68A0
:103070001A69FB685B6AD2B21A70FB685B6A5A1CF9
:10308000FB685A62FB681B8D013B9AB2FB681A858C
:10309000FB685B8D9BB2013B9AB2FB685A857B6AE9
:1030A0000093BB6B00225549F86800F055FB0346BE
:1030B000002B01D001239DE0FB681B681A68FB68A8
:1030C0001B6842F400721A60FB681B681A69FB688F
:1030D0005B6AD2B21A70FB685B6A5A1CFB685A6260
:1030E000FB681B8D013B9AB2FB681A85FB685B8D00
:1030F0009BB2013B9AB2FB685A85FB681B681A6950
:10310000FB685B6AD2B21A70FB685B6A5A1CFB6888
:103110005A62FB681B8D013B9AB2FB681A85FB68FB
:103120005B8D9BB2013B9AB2FB685A854EE07A6A8E
:10313000B96BF86800F0BAFC0346002B01D00123FC
:1031400058E0FB681B681A69FB685B6AD2B21A70A8
:10315000FB685B6A5A1CFB685A62FB681B8D013B6B
:103160009AB2FB681A85FB685B8D9BB2013B9AB2F1
:10317000FB685A85FB681B685B6903F00403042B3A
:1031800024D1FB681B8D032B07D1FB681B681A68D1
:10319000FB681B6822F480621A60FB681B681A696E
:1031A000FB685B6AD2B21A70FB685B6A5A1CFB68E8
:1031B0005A62FB681B8D013B9AB2FB681A85FB685B
:1031C0005B8D9BB2013B9AB2FB685A85FB681B8DF5
:1031D000002B7FF4B6AEFB68202283F83D20FB680D
:1031E000002283F83E20FB68002283F83C20002365
:1031F00000E0022318462837BD4680BD04000100C8
:1032000080B58AB002AFF8607A603B600B467B8184
:10321000FEF7E2FFF8610023BB61FB6893F83D30E5
:10322000DBB2202B40F01181FB69009319230122AE
:103230008849F86800F090FA0346002B01D0022379
:1032400004E1FB6893F83C30012B01D10223FDE03F
:10325000FB68012283F83C20FB681B681B6803F0B5
:103260000103012B07D0FB681B681A68FB681B6809
:1032700042F001021A60FB681B681A68FB681B6851
:1032800022F400621A60FB68242283F83D20FB6868
:1032900000221A64FB68704ADA62FB681B681A68CD
:1032A000FB681B6842F480721A60FB6900933B68FC
:1032B00000224FF00111F86800F04EFA0346002B8F
:1032C0000DD0FB681B681B6803F48073B3F5807F27
:1032D00003D1FB684FF400721A640323B6E07B89C4
:1032E000DBB21A46FB681B6802F0FE021A61FEF7A9
:1032F00073FFF861FB681B685B6903F00203022B34
:103300000CBF01230023DBB2FB75FB681B685B6904
:1033100003F48063B3F5806F0CBF01230023DBB29D
:10332000BB7525E0FEF758FF0246FB69D31A3A68E1
:103330009A4202D33B68002B03D1FB68A02283F89A
:103340003D20FB681B685B6903F00203022B0CBF86
:1033500001230023DBB2FB75FB681B685B6903F488
:103360008063B3F5806F0CBF01230023DBB2BB7514
:10337000FB6893F83D30DBB2A02B05D0FB7D002B22
:1033800002D1BB7D002BCDD0FB68202283F83D20ED
:10339000FB681B685B6903F00203022B29D1FB6801
:1033A0001B681A68FB681B6842F400721A600023ED
:1033B0003B61FB681B685B693B61FB681B689B6941
:1033C0003B613B69FB690093192301222149F8689D
:1033D00000F0C2F90346002B01D0012336E0FB6860
:1033E000202283F83D20FB68002283F83C20002344
:1033F0002CE0FB681B681A68FB681B6842F40072CB
:103400001A60FB681B686FF480625A61FB69009365
:10341000192301220F49F86800F09EF90346002B9A
:1034200001D0012312E0BB690133BB61BA697B683B
:103430009A42FFF432AFFB68202283F83D20FB68FC
:10344000002283F83C20012300E0022318462037A5
:10345000BD4680BD020010000000FFFF80B588B0AF
:1034600002AFF860084611461A4603467B810B46B8
:103470003B811346FB80FB681B681A68FB681B686E
:1034800042F480721A607B6A00933B6A00224FF01C
:103490000111F86800F060F90346002B0DD0FB68BD
:1034A0001B681B6803F48073B3F5807F03D1FB684E
:1034B0004FF400721A6403235FE07B89DBB21A4683
:1034C000FB681B6802F0FE021A617B6A3A6A2D49AA
:1034D000F86800F0BBF90346002B01D001234CE053
:1034E00000237B61FB681B685B697B61FB681B6871
:1034F0009B697B617B697A6A396AF86800F046FAF1
:103500000346002B0DD0FB681B6C042B07D1FB6816
:103510001B681A68FB681B6842F400721A6001237A
:103520002BE0FB88012B05D13B89DAB2FB681B68D5
:103530001A6121E03B891B0A9BB2DAB2FB681B6867
:103540001A617A6A396AF86800F020FA0346002B9B
:103550000DD0FB681B6C042B07D1FB681B681A6835
:10356000FB681B6842F400721A60012305E03B8986
:10357000DAB2FB681B681A61002318461837BD468B
:1035800080BD00BF0200010080B588B002AFF860C6
:10359000084611461A4603467B810B463B8113467B
:1035A000FB80FB681B681A68FB681B6842F480623A
:1035B0001A60FB681B681A68FB681B6842F480721B
:1035C0001A607B6A00933B6A00224FF00111F86891
:1035D00000F0C2F80346002B0DD0FB681B681B6887
:1035E00003F48073B3F5807F03D1FB684FF400725E
:1035F0001A640323AAE07B89DBB21A46FB681B68C6
:1036000002F0FE021A617B6A3A6A5249F86800F0D9
:103610001DF90346002B01D0012397E000237B61B5
:10362000FB681B685B697B61FB681B689B697B614E
:103630007B697A6A396AF86800F0A8F90346002BBA
:103640000DD0FB681B6C042B07D1FB681B681A6844
:10365000FB681B6842F400721A60012376E0FB8865
:10366000012B05D13B89DAB2FB681B681A6121E0A6
:103670003B891B0A9BB2DAB2FB681B681A617A6A43
:10368000396AF86800F082F90346002B0DD0FB6818
:103690001B6C042B07D1FB681B681A68FB681B684E
:1036A00042F400721A60012350E03B89DAB2FB68F1
:1036B0001B681A617A6A396AF86800F067F903468C
:1036C000002B0DD0FB681B6C042B07D1FB681B681B
:1036D0001A68FB681B6842F400721A60012335E027
:1036E000FB681B681A68FB681B6842F480721A60EA
:1036F0007B6A00933B6A00224FF00111F86800F0EA
:103700002BF80346002B0DD0FB681B681B6803F4E5
:103710008073B3F5807F03D1FB684FF400721A64A5
:10372000032313E07B89DBB243F00103DAB2FB68C9
:103730001B681A617B6A3A6A0649F86800F086F8E5
:103740000346002B01D0012300E000231846183760
:10375000BD4680BD0200010080B584B000AFF860B6
:10376000B9603B601346FB7148E03B68B3F1FF3F33
:1037700044D0FEF731FD0246BB69D31A3A689A423B
:1037800002D33B68002B39D1BB681B0CDBB2012B89
:103790000DD1FB681B685B69DA43BB6813409BB2C1
:1037A000002B0CBF01230023DBB21A460CE0FB68A0
:1037B0001B689B69DA43BB6813409BB2002B0CBFAC
:1037C00001230023DBB21A46FB799A4216D1FB682B
:1037D00000221A63FB68202283F83D20FB68002248
:1037E00083F83E20FB681B6C43F02002FB681A64E0
:1037F000FB68002283F83C20012323E0BB681B0CFC
:10380000DBB2012B0DD1FB681B685B69DA43BB6837
:1038100013409BB2002B0CBF01230023DBB21A46DE
:103820000CE0FB681B689B69DA43BB6813409BB2E2
:10383000002B0CBF01230023DBB21A46FB799A420E
:1038400093D0002318461037BD4680BD80B584B0A4
:1038500000AFF860B9607A603B6071E0FB681B689C
:103860005B6903F48063B3F5806F23D1FB681B6849
:103870001A68FB681B6842F400721A60FB681B68D8
:103880006FF480625A61FB6800221A63FB68202291
:1038900083F83D20FB68002283F83E20FB681B6C08
:1038A00043F00402FB681A64FB68002283F83C20A2
:1038B000012367E07B68B3F1FF3F41D0FEF78CFC4A
:1038C00002463B68D31A7A689A4202D37B68002B7F
:1038D00036D1BB681B0CDBB2012B0CD1FB681B681B
:1038E0005B69DA43BB6813409BB2002B14BF012312
:1038F0000023DBB20BE0FB681B689B69DA43BB6803
:1039000013409BB2002B14BF01230023DBB2002B1A
:1039100016D0FB6800221A63FB68202283F83D2042
:10392000FB68002283F83E20FB681B6C43F02002FA
:10393000FB681A64FB68002283F83C20012321E025
:10394000BB681B0CDBB2012B0CD1FB681B685B69ED
:10395000DA43BB6813409BB2002B14BF0123002342
:10396000DBB20BE0FB681B689B69DA43BB68134062
:103970009BB2002B14BF01230023DBB2002B7FF48A
:103980006DAF002318461037BD4680BD80B584B0AA
:1039900000AFF860B9607A6034E0F86800F0E3F8EE
:1039A0000346002B01D0012334E0BB68B3F1FF3F95
:1039B00028D0FEF711FC02467B68D31ABA689A42F7
:1039C00002D3BB68002B1DD1FB681B685B6903F049
:1039D0008003802B16D0FB6800221A63FB6820222C
:1039E00083F83D20FB68002283F83E20FB681B6CB7
:1039F00043F02002FB681A64FB68002283F83C2035
:103A0000012307E0FB681B685B6903F08003802BE0
:103A1000C3D1002318461037BD4680BD80B584B0A1
:103A200000AFF860B9607A6034E0F86800F09BF8A5
:103A30000346002B01D0012334E0BB68B3F1FF3F04
:103A400028D0FEF7C9FB02467B68D31ABA689A42AF
:103A500002D3BB68002B1DD1FB681B685B6903F0B8
:103A60000403042B16D0FB6800221A63FB68202293
:103A700083F83D20FB68002283F83E20FB681B6C26
:103A800043F02002FB681A64FB68002283F83C20A4
:103A9000012307E0FB681B685B6903F00403042B48
:103AA000C3D1002318461037BD4680BD80B584B011
:103AB00000AFF860B9607A6049E0FB681B685B6939
:103AC00003F01003102B19D1FB681B686FF0100274
:103AD0005A61FB6800221A63FB68202283F83D20AC
:103AE000FB68002283F83E20FB681A6CFB681A64AE
:103AF000FB68002283F83C20012330E0FEF76CFBDA
:103B000002467B68D31ABA689A4202D3BB68002B7C
:103B10001DD1FB681B685B6903F04003402B16D086
:103B2000FB6800221A63FB68202283F83D20FB68B3
:103B3000002283F83E20FB681B6C43F02002FB68E8
:103B40001A64FB68002283F83C20012307E0FB682D
:103B50001B685B6903F04003402BAED1002318467D
:103B60001037BD4680BD80B483B000AF78607B68FD
:103B70001B685B6903F48063B3F5806F1BD17B68BE
:103B80001B686FF480625A617B6800221A637B684D
:103B9000202283F83D207B68002283F83E207B684A
:103BA0001B6C43F004027B681A647B68002283F874
:103BB0003C20012300E0002318460C37BD465DF889
:103BC000047B704780B586B000AF78607B68002BBF
:103BD00001D1012367E27B681B6803F00103002B1E
:103BE00075D0884B9B6803F00C03042B0CD0854BDD
:103BF0009B6803F00C03082B12D1824B5B6803F423
:103C00008003B3F5800F0BD17E4B1B6803F40033A8
:103C1000002B5BD07B685B68002B57D1012342E20D
:103C20007B685B68B3F5803F06D1764B1B68754AAD
:103C300043F4803313601DE07B685B68B3F5A02F0D
:103C40000CD1704B1B686F4A43F4802313606D4B9B
:103C50001B686C4A43F4803313600BE0694B1B68AC
:103C6000684A23F480331360664B1B68654A23F46B
:103C7000802313607B685B68002B13D0FEF7ACFADF
:103C8000386108E0FEF7A8FA02463B69D31A642BB4
:103C900001D9032307E25B4B1B6803F40033002BBD
:103CA000F0D014E0FEF798FA386108E0FEF794FAD5
:103CB00002463B69D31A642B01D90323F3E1514B2C
:103CC0001B6803F40033002BF0D100E000BF7B68D9
:103CD0001B6803F00203002B63D04A4B9B6803F080
:103CE0000C03002B0BD0474B9B6803F00C03082BF5
:103CF0001CD1444B5B6803F48003002B16D1414B6D
:103D00001B6803F00203002B05D07B68DB68012BE6
:103D100001D00123C7E13B4B1B6823F0F8027B680D
:103D20001B69DB00374913430B603AE07B68DB68B3
:103D3000002B20D0344B01221A60FEF74DFA386177
:103D400008E0FEF749FA02463B69D31A022B01D973
:103D50000323A8E12B4B1B6803F00203002BF0D0D8
:103D6000284B1B6823F0F8027B681B69DB002549A0
:103D700013430B6015E0244B00221A60FEF72CFA67
:103D8000386108E0FEF728FA02463B69D31A022B95
:103D900001D9032387E11B4B1B6803F00203002BAF
:103DA000F0D17B681B6803F00803002B36D07B68DA
:103DB0005B69002B16D0154B01221A60FEF70CFA36
:103DC000386108E0FEF708FA02463B69D31A022B75
:103DD00001D9032367E10B4B5B6F03F00203002B58
:103DE000F0D01BE0094B00221A60FEF7F5F93861AC
:103DF0000EE0FEF7F1F902463B69D31A022B07D910
:103E0000032350E10038024000004742800E474241
:103E1000884B5B6F03F00203002BEAD17B681B68C1
:103E200003F00403002B00F097800023FB75814B07
:103E30001B6C03F08053002B0FD10023BB607D4B24
:103E40001B6C7C4A43F0805313647A4B1B6C03F069
:103E50008053BB60BB680123FB75774B1B6803F481
:103E60008073002B18D1744B1B68734A43F4807322
:103E70001360FEF7B1F9386108E0FEF7ADF90246CC
:103E80003B69D31A022B01D903230CE16A4B1B684F
:103E900003F48073002BF0D07B689B68012B06D164
:103EA000644B1B6F634A43F0010313671CE07B689C
:103EB0009B68052B0CD15F4B1B6F5E4A43F00403DC
:103EC00013675C4B1B6F5B4A43F0010313670BE006
:103ED000584B1B6F574A23F001031367554B1B6F59
:103EE000544A23F0040313677B689B68002B15D0AA
:103EF000FEF772F938610AE0FEF76EF902463B6997
:103F0000D31A41F28832934201D90323CBE0494BC3
:103F10001B6F03F00203002BEED014E0FEF75CF9F8
:103F200038610AE0FEF758F902463B69D31A41F2BC
:103F30008832934201D90323B5E03E4B1B6F03F057
:103F40000203002BEED1FB7D012B05D1394B1B6CFD
:103F5000384A23F0805313647B689B69002B00F080
:103F6000A180344B9B6803F00C03082B5CD07B686A
:103F70009B69022B41D1314B00221A60FEF72CF9CC
:103F8000386108E0FEF728F902463B69D31A022B94
:103F900001D9032387E0274B1B6803F00073002B34
:103FA000F0D17B68DA697B681B6A1A437B685B6ABD
:103FB0009B011A437B689B6A5B08013B1B041A4305
:103FC0007B68DB6A1B061B4913434B601B4B0122BA
:103FD0001A60FEF701F9386108E0FEF7FDF80246C5
:103FE0003B69D31A022B01D903235CE0114B1B68F8
:103FF00003F00073002BF0D054E0104B00221A6045
:10400000FEF7EAF8386108E0FEF7E6F802463B6999
:10401000D31A022B01D9032345E0064B1B6803F09A
:104020000073002BF0D13DE07B689B69012B07D129
:10403000012338E000380240007000406000474231
:104040001B4B5B68FB607B689B69012B28D0FB687E
:1040500003F480027B68DB699A4221D1FB6803F09C
:104060003F027B681B6A9A421AD1FA6847F6C0730E
:1040700013407A68526A9201934211D1FB6803F4AB
:1040800040327B689B6A5B08013B1B049A4207D164
:10409000FB6803F070627B68DB6A1B069A4201D002
:1040A000012300E0002318461837BD4680BD00BF3D
:1040B0000038024080B584B000AF786039607B681A
:1040C000002B01D10123CCE0684B1B6803F00703F0
:1040D0003A689A420CD9654B3A68D2B21A70634B6F
:1040E0001B6803F007033A689A4201D00123B8E045
:1040F0007B681B6803F00203002B20D07B681B68E1
:1041000003F00403002B05D0594B9B68584A43F435
:10411000E05393607B681B6803F00803002B05D015
:10412000534B9B68524A43F460439360504B9B68E7
:1041300023F0F0027B689B684D4913438B607B68DA
:104140001B6803F00103002B44D07B685B68012BE4
:1041500007D1474B1B6803F40033002B19D101230F
:104160007FE07B685B68022B03D07B685B68032B76
:1041700007D13F4B1B6803F00073002B09D10123CB
:104180006FE03B4B1B6803F00203002B01D10123BE
:1041900067E0374B9B6823F003027B685B68344918
:1041A00013438B60FEF718F8F8600AE0FEF714F886
:1041B0000246FB68D31A41F28832934201D90323A5
:1041C0004FE02B4B9B6803F00C027B685B689B0005
:1041D0009A42EBD1254B1B6803F007033A689A42D9
:1041E0000CD2224B3A68D2B21A70204B1B6803F0F3
:1041F00007033A689A4201D0012332E07B681B68CA
:1042000003F00403002B08D0194B9B6823F4E05201
:104210007B68DB68164913438B607B681B6803F07F
:104220000803002B09D0124B9B6823F460427B6883
:104230001B69DB000E4913438B6000F021F8024636
:104240000B4B9B681B0903F00F030A49CB5C22FA56
:1042500003F3094A1360094B1B681846FDF778FF02
:10426000002318461037BD4680BD00BF003C024009
:104270000038024014AE00080000002004000020B6
:104280002DE9B04F90B000AF00237B630023FB63A8
:1042900000233B630023BB63594B9B6803F00C0373
:1042A000082B0DD0082B00F2A180002B02D0042B8C
:1042B00003D09BE0534BBB639BE0534BBB6398E045
:1042C0004F4B5B6803F03F037B634D4B5B6803F42C
:1042D0008003002B28D04A4B5B689B0900223B627D
:1042E0007A623B6AC3F308000021474B03FB01F2EB
:1042F000002300FB03F31344434AA0FB0212FA62BB
:104300000A46BA62FA6A1344FB627B6B0022BB6105
:10431000FA61D7E90623D7E90A01FCF7BDFC02469A
:104320000B461346FB6353E0354B5B689B09002249
:104330003B617A613B69C3F3080A4FF0000B5246B8
:104340005B464FF000004FF00001590141EAD26195
:10435000500102460B46B2EB0A0863EB0B094FF023
:1043600000024FF000034FEA891343EA98634FEAD3
:104370008812B2EB080463EB09054FF000024FF01E
:104380000003EB0043EA5473E20014461D4614EBAD
:104390000A033B6045EB0B037B604FF000024FF0DC
:1043A0000003D7E9004529468B02214643EA915391
:1043B00021468A02104619467B6B0022BB60FA60D8
:1043C000D7E90223FCF768FC02460B461346FB6361
:1043D0000B4B5B681B0C03F0030301335B003B6377
:1043E000FA6B3B6BB2FBF3F3BB6302E0054BBB63C1
:1043F00000BFBB6B18464037BD46BDE8B08F00BF5D
:10440000003802400024F40040787D0180B400AF01
:10441000034B1B681846BD465DF8047B704700BF20
:104420000000002080B500AFFFF7F0FF0246054B0B
:104430009B689B0A03F007030349CB5C22FA03F352
:10444000184680BD0038024024AE000880B500AF99
:10445000FFF7DCFF0246054B9B685B0B03F007038D
:104460000349CB5C22FA03F3184680BD00380240B2
:1044700024AE000880B582B000AF78607B68002B66
:1044800001D1012341E07B6893F83D30DBB2002B82
:1044900006D17B68002283F83C207868FDF736FD62
:1044A0007B68022283F83D207B681A687B680433AE
:1044B0001946104600F0F8F97B68012283F846207F
:1044C0007B68012283F83E207B68012283F83F202D
:1044D0007B68012283F840207B68012283F8412019
:1044E0007B68012283F842207B68012283F8432005
:1044F0007B68012283F844207B68012283F84520F1
:104500007B68012283F83D20002318460837BD460A
:1045100080BD80B582B000AF78607B68002B01D190
:10452000012341E07B6893F83D30DBB2002B06D1DC
:104530007B68002283F83C20786800F039F87B68BB
:10454000022283F83D207B681A687B680433194691
:10455000104600F0A9F97B68012283F846207B68A9
:10456000012283F83E207B68012283F83F207B688C
:10457000012283F840207B68012283F841207B6878
:10458000012283F842207B68012283F843207B6864
:10459000012283F844207B68012283F845207B6850
:1045A000012283F83D20002318460837BD4680BD10
:1045B00080B483B000AF786000BF0C37BD465DF8B3
:1045C000047B704780B584B000AF786039603B6889
:1045D000002B09D17B6893F83E30DBB2012B14BF6E
:1045E00001230023DBB222E03B68042B09D17B6866
:1045F00093F83F30DBB2012B14BF01230023DBB261
:1046000015E03B68082B09D17B6893F84030DBB29A
:10461000012B14BF01230023DBB208E07B6893F871
:104620004130DBB2012B14BF01230023DBB2002B8E
:1046300001D0012368E03B68002B04D17B68022293
:1046400083F83E2013E03B68042B04D17B680222F0
:1046500083F83F200BE03B68082B04D17B680222E3
:1046600083F8402003E07B68022283F841207B68C6
:104670001B6801223968184600F028FB7B681B681C
:10468000234A934207D17B681B685A6C7B681B687E
:1046900042F400425A647B681B681D4A934218D05A
:1046A0007B681B68B3F1804F13D07B681B68194A85
:1046B00093420ED07B681B68174A934209D07B68EF
:1046C0001B68164A934204D07B681B68144A9342C5
:1046D00011D17B681B689B6803F00703FB60FB68D4
:1046E000062B10D07B681B681A687B681B6842F039
:1046F00001021A6007E07B681B681A687B681B6808
:1047000042F001021A60002318461037BD4680BDF2
:10471000000001400004004000080040000C004080
:104720000040014080B586B000AFF860B9607A60A3
:104730000023FB75FB6893F83C30012B01D1022369
:10474000AEE0FB68012283F83C207B680C2B00F272
:104750009F8001A252F823F08D470008914800087D
:104760009148000891480008CD470008914800088A
:1047700091480008914800080F4800089148000837
:1047800091480008914800084F480008FB681B68E2
:10479000B968184600F00EF9FB681B689A69FB6857
:1047A0001B6842F008029A61FB681B689A69FB6803
:1047B0001B6822F004029A61FB681B689969BB6858
:1047C0001A69FB681B680A439A6164E0FB681B680E
:1047D000B968184600F054F9FB681B689A69FB68D1
:1047E0001B6842F400629A61FB681B689A69FB6867
:1047F0001B6822F480629A61FB681B689969BB6838
:104800001B691A02FB681B680A439A6143E0FB6854
:104810001B68B968184600F09FF9FB681B68DA69E5
:10482000FB681B6842F00802DA61FB681B68DA6902
:10483000FB681B6822F00402DA61FB681B68D96917
:10484000BB681A69FB681B680A43DA6123E0FB68EE
:104850001B68B968184600F0E9F9FB681B68DA695B
:10486000FB681B6842F40062DA61FB681B68DA6966
:10487000FB681B6822F48062DA61FB681B68D969F7
:10488000BB681B691A02FB681B680A43DA6102E015
:104890000123FB7500BFFB68002283F83C20FB7DF1
:1048A00018461837BD4680BD80B485B000AF78602B
:1048B00039607B681B68FB607B68374A93420FD086
:1048C0007B68B3F1804F0BD07B68344A934207D0AA
:1048D0007B68334A934203D07B68324A934208D1C3
:1048E000FB6823F07003FB603B685B68FA68134366
:1048F000FB607B68284A93421BD07B68B3F1804FF2
:1049000017D07B68254A934213D07B68244A934290
:104910000FD07B68234A93420BD07B68224A934294
:1049200007D07B68214A934203D07B68204A934298
:1049300008D1FB6823F44073FB603B68DB68FA68CE
:104940001343FB60FB6823F080023B685B69134301
:10495000FB603B689A687B68DA623B681A687B6830
:104960009A627B680C4A934203D13B681A697B6860
:104970001A637B681B6843F004027B681A607B68DB
:1049800001225A617B68FA681A6000BF1437BD467D
:104990005DF8047B704700BF000001400004004048
:1049A00000080040000C004000400140004401406D
:1049B0000048014080B487B000AF786039607B6800
:1049C0001B6A7B617B681B6A23F001027B681A62A9
:1049D0007B685B683B617B689B69FB60FB6823F0DD
:1049E0007003FB60FB6823F00303FB603B681B68FC
:1049F000FA681343FB607B6923F002037B613B6829
:104A00009B687A6913437B617B681C4A93420CD193
:104A10007B6923F008037B613B68DB687A69134399
:104A20007B617B6923F004037B617B68134A9342BB
:104A300011D13B6923F480733B613B6923F400731C
:104A40003B613B685B693A6913433B613B689B6927
:104A50003A6913433B617B683A695A607B68FA683C
:104A60009A613B685A687B685A637B687A691A6204
:104A700000BF1C37BD465DF8047B70470000014055
:104A800080B487B000AF786039607B681B6A7B6157
:104A90007B681B6A23F010027B681A627B685B6884
:104AA0003B617B689B69FB60FB6823F4E043FB6030
:104AB000FB6823F44073FB603B681B681B02FA68C9
:104AC0001343FB607B6923F020037B613B689B6899
:104AD0001B017A6913437B617B681E4A93420DD1A7
:104AE0007B6923F080037B613B68DB681B017A698B
:104AF00013437B617B6923F040037B617B68154A2C
:104B0000934213D13B6923F480633B613B6923F4F7
:104B100000633B613B685B699B003A6913433B61FF
:104B20003B689B699B003A6913433B617B683A6928
:104B30005A607B68FA689A613B685A687B689A6336
:104B40007B687A691A6200BF1C37BD465DF8047B3A
:104B5000704700BF0000014080B487B000AF7860AC
:104B600039607B681B6A7B617B681B6A23F48072F7
:104B70007B681A627B685B683B617B68DB69FB6012
:104B8000FB6823F07003FB60FB6823F00303FB600A
:104B90003B681B68FA681343FB607B6923F400736E
:104BA0007B613B689B681B027A6913437B617B686E
:104BB0001D4A93420DD17B6923F400637B613B68FE
:104BC000DB681B027A6913437B617B6923F4806392
:104BD0007B617B68144A934213D13B6923F4805371
:104BE0003B613B6923F400533B613B685B691B01FC
:104BF0003A6913433B613B689B691B013A69134364
:104C00003B617B683A695A607B68FA68DA613B68A5
:104C10005A687B68DA637B687A691A6200BF1C375E
:104C2000BD465DF8047B70470000014080B487B04A
:104C300000AF786039607B681B6A3B617B681B6AE8
:104C400023F480527B681A627B685B687B617B68B7
:104C5000DB69FB60FB6823F4E043FB60FB6823F443
:104C60004073FB603B681B681B02FA681343FB60E0
:104C70003B6923F400533B613B689B681B033A6923
:104C800013433B617B68104A934209D17B6923F44B
:104C900080437B613B685B699B017A6913437B615D
:104CA0007B687A695A607B68FA68DA613B685A689F
:104CB0007B681A647B683A691A6200BF1C37BD467C
:104CC0005DF8047B704700BF0000014080B487B0EE
:104CD00000AFF860B9607A60BB6803F01F0301227F
:104CE00002FA03F37B61FB681A6A7B69DB431A40B3
:104CF000FB681A62FB681A6ABB6803F01F037968D5
:104D000001FA03F31A43FB681A6200BF1C37BD4661
:104D10005DF8047B704780B582B000AF78607B6837
:104D2000002B01D1012342E07B6893F84130DBB2D4
:104D3000002B06D17B68002283F840207868FDF7BD
:104D40006BF97B68242283F841207B681B68DA6852
:104D50007B681B6822F40052DA60786800F0D4FDAA
:104D60007B681B681A697B681B6822F490421A6191
:104D70007B681B685A697B681B6822F02A025A61AB
:104D80007B681B68DA687B681B6842F40052DA6053
:104D90007B6800225A647B68202283F841207B686C
:104DA000202283F842207B6800225A6300231846A1
:104DB0000837BD4680BD80B58AB002AFF860B960E3
:104DC0003B601346FB8000237B61FB6893F8413016
:104DD000DBB2202B75D1BB68002B02D0FB88002BE7
:104DE00001D101236EE0FB6800225A64FB68212296
:104DF00083F84120FDF7F0F97861FB68FA889A841E
:104E0000FB68FA88DA84FB689B68B3F5805F08D199
:104E1000FB681B69002B04D10023FB61BB68BB61ED
:104E200003E0BB68FB610023BB612EE03B6800939D
:104E30007B6900228021F86800F038FB0346002BD4
:104E400005D0FB68202283F8412003233AE0FB6968
:104E5000002B0BD1BB691B881A46FB681B68C2F389
:104E600008025A60BB690233BB6107E0FB691A782C
:104E7000FB681B685A60FB690133FB61FB68DB8CD4
:104E80009BB2013B9AB2FB68DA84FB68DB8C9BB275
:104E9000002BCBD13B6800937B6900224021F8684E
:104EA00000F004FB0346002B05D0FB68202283F8AA
:104EB0004120032306E0FB68202283F841200023E1
:104EC00000E0022318462037BD4680BD80B584B07F
:104ED00000AFF860B9601346FB80FB6893F842307E
:104EE000DBB2202B12D1BB68002B02D0FB88002B39
:104EF00001D101230BE0FB6800221A63FB881A46EC
:104F0000B968F86800F02BFB034600E0022318465E
:104F10001037BD4680BD000080B5BAB000AF7860E4
:104F20007B681B681B68C7F8E4307B681B68DB681C
:104F3000C7F8E0307B681B685B69C7F8DC3000238A
:104F4000C7F8D8300023C7F8D430D7F8E43003F0DE
:104F50000F03C7F8D830D7F8D830002B0FD1D7F8C7
:104F6000E43003F02003002B09D0D7F8E03003F041
:104F70002003002B03D0786800F007FC73E2D7F819
:104F8000D830002B00F0DE80D7F8DC3003F00103CE
:104F9000002B06D1D7F8E03003F49073002B00F01B
:104FA000D180D7F8E43003F00103002B0BD0D7F801
:104FB000E03003F48073002B05D07B685B6C43F01A
:104FC00001027B685A64D7F8E43003F00403002B35
:104FD0000BD0D7F8DC3003F00103002B05D07B6841
:104FE0005B6C43F002027B685A64D7F8E43003F04C
:104FF0000203002B0BD0D7F8DC3003F00103002BA9
:1050000005D07B685B6C43F004027B685A64D7F878
:10501000E43003F00803002B11D0D7F8E03003F0A0
:105020002003002B05D1D7F8DC3003F00103002B5F
:1050300005D07B685B6C43F008027B685A647B6830
:105040005B6C002B00F00A82D7F8E43003F02003F9
:10505000002B08D0D7F8E03003F02003002B02D05B
:10506000786800F092FB7B681B685B6903F0400383
:10507000402B0CBF01230023DBB2C7F8D4307B6880
:105080005B6C03F00803002B03D1D7F8D430002B5E
:105090004FD0786800F09DFA7B681B685B6903F06D
:1050A0004003402B41D17B681B681433C7F89C3008
:1050B000D7F89C3053E8003FC7F89830D7F89830BD
:1050C00023F04003C7F8D0307B681B681433D7F84F
:1050D000D020C7F8A820C7F8A430D7F8A410D7F874
:1050E000A82041E80023C7F8A030D7F8A030002B53
:1050F000D9D17B68DB6B002B13D07B68DB6B8A4AD2
:105100001A657B68DB6B1846FDF717FA0346002B20
:1051100016D07B68DB6B1B6D7A68D26B10469847A4
:105120000EE0786800F0ACF90AE0786800F0A8F9C1
:1051300006E0786800F0A4F97B6800225A648DE1EB
:1051400000BF8BE17B681B6B012B40F06781D7F8B8
:10515000E43003F01003002B00F06081D7F8E0305A
:1051600003F01003002B00F059810023BB607B6823
:105170001B681B68BB607B681B685B68BB60BB68A7
:105180007B681B685B6903F04003402B40F0CE80D6
:105190007B68DB6B1B685B68A7F8BE30B7F8BE3076
:1051A000002B00F0A9807B689B8DB7F8BE209A4247
:1051B00080F0A2807B68B7F8BE20DA857B68DB6B65
:1051C000DB69B3F5807F00F088807B681B680C3357
:1051D000C7F88830D7F8883053E8003FC7F88430E4
:1051E000D7F8843023F48073C7F8B8307B681B6825
:1051F0000C33D7F8B820C7F89420C7F89030D7F808
:105200009010D7F8942041E80023C7F88C30D7F8E5
:105210008C30002BD9D17B681B6814337B677B6F84
:1052200053E8003F3B673B6F23F00103C7F8B430FE
:105230007B681B681433D7F8B420C7F88020FB675D
:10524000F96FD7F8802041E80023BB67BB6F002BC4
:10525000E1D17B681B6814333B663B6E53E8003F2B
:10526000FB65FB6D23F04003C7F8B0307B681B681B
:105270001433D7F8B020FA66BB66B96EFA6E41E80F
:1052800000237B667B6E002BE3D17B68202283F8B2
:1052900042207B6800221A637B681B680C33FB6426
:1052A000FB6C53E8003FBB64BB6C23F01003C7F8F2
:1052B000AC307B681B680C33D7F8AC20BA657B65D3
:1052C000796DBA6D41E800233B653B6D002BE3D15E
:1052D0007B68DB6B1846FDF7C0F87B6802225A63D7
:1052E0007B689A8D7B68DB8D9BB2D31A9BB2194683
:1052F000786800F0CFF8B3E07B689B8DB7F8BE20EC
:105300009A4240F0AD807B68DB6BDB69B3F5807F50
:1053100040F0A6807B6802225A637B689B8D194609
:10532000786800F0B7F89BE0995600087B689A8D82
:105330007B68DB8D9BB2D31AA7F8CE307B68DB8D00
:105340009BB2002B00F08E80B7F8CE30002B00F01F
:1053500089807B681B680C33BB63BB6B53E8003FE1
:105360007B637B6B23F49073C7F8C8307B681B6842
:105370000C33D7F8C8207A643B64396C7A6C41E806
:105380000023FB63FB6B002BE3D17B681B681433AA
:105390007B627B6A53E8003F3B623B6A23F0010378
:1053A000C7F8C4307B681B681433D7F8C4203A634D
:1053B000FB62F96A3A6B41E80023BB62BB6A002BCF
:1053C000E3D17B68202283F842207B6800221A63A5
:1053D0007B681B680C333B613B6953E8003FFB6013
:1053E000FB6823F01003C7F8C0307B681B680C33E0
:1053F000D7F8C020FA61BB61B969FA6941E80023B6
:105400007B617B69002BE3D17B6802225A63B7F88A
:10541000CE301946786800F03DF823E0D7F8E43044
:1054200003F08003002B09D0D7F8E03003F08003AD
:10543000002B03D0786800F040F914E0D7F8E4308E
:1054400003F04003002B0ED0D7F8E03003F0400308
:10545000002B08D0786800F080F904E000BF02E07B
:1054600000BF00E000BFE837BD4680BD80B483B018
:1054700000AF786000BF0C37BD465DF8047B704715
:1054800080B483B000AF786000BF0C37BD465DF8D4
:10549000047B704780B483B000AF78600B467B809C
:1054A00000BF0C37BD465DF8047B704780B586B001
:1054B00000AFF860B9603B601346FB713BE03B6AAC
:1054C000B3F1FF3F37D0FCF787FE02463B68D31AA3
:1054D0003A6A9A4202D33B6A002B01D103233AE095
:1054E000FB681B68DB6803F00403002B23D0BB6858
:1054F000802B20D0BB68402B1DD0FB681B681B682D
:1055000003F00803082B16D100237B61FB681B689E
:105510001B687B61FB681B685B687B617B69F86863
:1055200000F057F8FB6808225A64FB68002283F8F1
:10553000402001230FE0FB681B681A68BB6813401A
:10554000BA689A420CBF01230023DBB21A46FB79EA
:105550009A42B4D0002318461837BD4680BD80B4A7
:1055600085B000AFF860B9601346FB80FB68BA688D
:105570009A62FB68FA889A85FB68FA88DA85FB6884
:1055800000225A64FB68222283F84220FB681B69D0
:10559000002B07D0FB681B68DA68FB681B6842F4C5
:1055A0008072DA60FB681B685A69FB681B6842F00E
:1055B00001025A61FB681B68DA68FB681B6842F0ED
:1055C0002002DA60002318461437BD465DF8047BDC
:1055D000704780B495B000AF78607B681B680C336F
:1055E0007B637B6B53E8003F3B633B6B23F490731F
:1055F000FB647B681B680C33FA6C3A64FB63F96BE1
:105600003A6C41E80023BB63BB6B002BE5D17B68A0
:105610001B6814333B623B6A53E8003FFB61FB6944
:1056200023F00103BB647B681B681433BA6CFA6215
:10563000BB62B96AFA6A41E800237B627B6A002B8D
:10564000E5D17B681B6B012B19D17B681B680C3380
:10565000FB60FB6853E8003FBB60BB6823F01003AE
:105660007B647B681B680C337A6CBA617B617969F7
:10567000BA6941E800233B613B69002BE5D17B68B7
:10568000202283F842207B6800221A6300BF54372F
:10569000BD465DF8047B704780B584B000AF78608C
:1056A0007B689B6BFB60FB680022DA85F868FFF77C
:1056B000E7FE00BF1037BD4680BD80B485B000AFA7
:1056C00078607B6893F84130DBB2212B3ED17B6858
:1056D0009B68B3F5805F14D17B681B69002B10D1E8
:1056E0007B681B6AFB60FB681B881A467B681B682B
:1056F000C2F308025A607B681B6A9A1C7B681A62B4
:1057000008E07B681B6A591C7A6811621A787B680A
:105710001B685A607B68DB8C9BB2013B9BB27A684A
:105720001946D184002B0FD17B681B68DA687B682F
:105730001B6822F08002DA607B681B68DA687B688D
:105740001B6842F04002DA60002300E002231846A2
:105750001437BD465DF8047B704780B582B000AF5A
:1057600078607B681B68DA687B681B6822F04002FF
:10577000DA607B68202283F841207868FFF776FEA4
:10578000002318460837BD4680BD80B58CB000AFF9
:1057900078600023FB620023BB627B6893F8423091
:1057A000DBB2222B40F0AA807B689B68B3F5805F58
:1057B00015D17B681B69002B11D17B689B6ABB628A
:1057C0007B681B685B689BB2C3F308039AB2BB6A31
:1057D0001A807B689B6A9A1C7B689A6224E07B68CB
:1057E0009B6AFB627B689B68B3F5805F07D07B6830
:1057F0009B68002B0AD17B681B69002B06D17B6854
:105800001B685B68DAB2FB6A1A7008E07B681B6889
:105810005B68DBB203F07F03DAB2FB6A1A707B6865
:105820009B6A5A1C7B689A627B68DB8D9BB2013B4A
:105830009BB27A681946D185002B5DD17B681B68C5
:10584000DA687B681B6822F02002DA607B681B68DC
:10585000DA687B681B6822F48072DA607B681B68F8
:105860005A697B681B6822F001025A617B6820221A
:1058700083F842207B6800225A637B681B6B012BF4
:1058800035D17B6800221A637B681B680C337B610F
:105890007B6953E8003F3B613B6923F010037B6267
:1058A0007B681B680C337A6A3A62FB61F9693A6A71
:1058B00041E80023BB61BB69002BE5D17B681B6815
:1058C0001B6803F01003102B0AD10023FB607B68D8
:1058D0001B681B68FB607B681B685B68FB60FB6880
:1058E0007B689B8D19467868FFF7D4FD02E07868E5
:1058F000FBF7D4FE002302E0002300E00223184659
:105900003037BD4680BD00002DE9B04FC0B000AFBC
:10591000C7F8F400D7F8F4301B681B6923F4405033
:10592000D7F8F430D968D7F8F4301A6840EA0103A0
:105930001361D7F8F4309A68D7F8F4301B691A432A
:10594000D7F8F4305B691A43D7F8F430DB691343B6
:10595000C7F8F830D7F8F4301B68DB6823F4164139
:1059600021F00C01D7F8F4301A68D7F8F8300B435F
:10597000D360D7F8F4301B685B6923F44070D7F824
:10598000F4309969D7F8F4301A6840EA010353619A
:10599000D7F8F4301A688F4B9A4205D0D7F8F43014
:1059A0001A688D4B9A4204D1FEF750FDC7F8FC00EF
:1059B00003E0FEF737FDC7F8FC00D7F8F430DB69E9
:1059C000B3F5004F40F00C81D7F8FC300022C7F847
:1059D000E830C7F8EC20D7E93A4522462B46911823
:1059E000B9655B41FB65D7E91623214612EB010837
:1059F000294643EB01094FF000024FF000034FEA44
:105A0000C90343EA58734FEAC802904699462346B1
:105A100018EB0303C7F8E0302B4649EB0303C7F844
:105A2000E430D7F8F4305B680022C7F8D830C7F804
:105A3000DC20D7E936120B46DB183B65134642EBF8
:105A400003037B65D7E91423D7E93801FBF724F971
:105A500002460B46614BA3FB02235B091C01D7F8EE
:105A6000FC300022C7F8D030C7F8D420D7E93489F9
:105A700042464B469118B9645B41FB64D7E9122357
:105A8000414612EB010A494643EB010B4FF000027D
:105A90004FF000034FEACB0343EA5A734FEACA02BE
:105AA00092469B4643461AEB0303C7F8C8304B4661
:105AB0004BEB0303C7F8CC30D7F8F4305B68002217
:105AC000C7F8C030C7F8C420D7E930120B46DB183E
:105AD0003B64134642EB03037B64D7E91023D7E909
