:020000040800F2
:10000000002800207D040008170400081F040008D1
:10001000270400082F04000837040008000000002F
:100020000000000000000000000000003F04000885
:100030004B04000800000000570400086304000897
:10004000C5040008C5040008C5040008C50400086C
:10005000C5040008C5040008C5040008C50400085C
:10006000C5040008C5040008C5040008C50400084C
:10007000C5040008C5040008C5040008C50400083C
:10008000C5040008C5040008C5040008C50400082C
:10009000C5040008C5040008C5040008C50400081C
:1000A000C5040008C5040008C5040008C50400080C
:1000B000C5040008C504000800000000C5040008CD
:1000C000C50400080000000000000000C50400088E
:1000D00000000000C5040008C5040008000000007E
:1000E000C5040008C5040008C5040008000000009D
:1000F0000000000000000000000000000000000000
:0C01000000000000000000005FF808F1A3
:10010C0010B5054C237833B9044B13B10448AFF345
:10011C0000800123237010BD0400002000000000AB
:10012C003405000808B5034B1BB103490348AFF372
:10013C00008008BD00000000080000203405000805
:10014C0080B483B000AF0346FB710B46BB71134602
:10015C007B71BB79072B2FD8FB799B0203F1804372
:10016C0003F584331A68BB799B000F2101FA03F362
:10017C00DB431846FB799B0203F1804303F5843380
:10018C00194602EA00030B60FB799B0203F18043E2
:10019C0003F584331A687979BB799B0001FA03F370
:1001AC001846FB799B0203F1804303F5843319460F
:1001BC0042EA00030B602FE0BB79072B2CD9FB79AB
:1001CC009B021A46174B13441A68BB79083B9B00D9
:1001DC000F2101FA03F3DB431846FB799B02194606
:1001EC00104B0B44194602EA00030B60FB799B028F
:1001FC001A460C4B13441A687979BB79083B9B005F
:10020C0001FA03F31846FB799B021946054B0B4484
:10021C00194642EA00030B6000BF0C37BD4680BC98
:10022C00704700BF0408014080B584B000AF03469E
:10023C000A46FB711346BB710023FB7308E0BA79C5
:10024C00F97BFB791846FFF77BFFFB7B0133FB73D4
:10025C00FB7B0F2BF3D900BF00BF1037BD4680BD11
:10026C0080B483B000AF03460A46FB711346BB80D3
:10027C00FB799B021A46054B13441A46BB88136044
:10028C0000BF0C37BD4680BC704700BF0C08014056
:10029C0080B400AF1E4B1B681D4A43F480331360BF
:1002AC0000BF1B4B1B685B0C03F00103002BF8D049
:1002BC00184B1B68174A23F0F0031360154B1B688F
:1002CC00144A23F4E0631360124B1B68114A43F485
:1002DC00806313600F4B1B680E4A23F4605313604A
:1002EC000C4B1B680B4A23F003031360094B094AA0
:1002FC001B68136000BF074B1B689B0803F00303CC
:10030C00002BF8D100BF00BFBD4680BC704700BFBA
:10031C00001002400410024080B483B000AF0346CA
:10032C000A46FB711346BB71BB791F2B2AD8FB798C
:10033C00022B1CD0022B26DC002B02D0012B0BD065
:10034C0021E0134B1B68BA79012101FA02F2114624
:10035C000F4A0B43136016E00E4B1B68BA79012150
:10036C0001FA02F211460B4A0B4313600BE00A4BE5
:10037C001B68BA79012101FA02F21146064A0B43B5
:10038C00136000E000BF0C37BD4680BC704700BF57
:10039C00141002401C1002401810024080B500AF2F
:1003AC00FFF776FF02210220FFF7B6FF03210020A2
:1003BC00FFF73AFF4FF6FF710020FFF751FF4FF4A4
:1003CC00FA7000F00AF800210020FFF749FF4FF403
:1003DC00FA7000F002F800BFECE780B483B000AF15
:1003EC0078607A6813469B0013441A01D31A7B6019
:1003FC0000E000BF7B685A1E7A60002BF9D100BF69
:10040C0000BF0C37BD4680BC704780B400AF00BF46
:10041C00FDE780B400AF00BFFDE780B400AF00BFC4
:10042C00FDE780B400AF00BFFDE780B400AF00BFB4
:10043C00FDE780B400AF00BFBD4680BC704780B400
:10044C0000AF00BFBD4680BC704780B400AF00BF9A
:10045C00BD4680BC704780B500AF00F02FF800BFE0
:10046C0080BD80B400AF00BFBD4680BC70470000AB
:10047C00FFF7F7FF0B480C490C4A002302E0D45855
:10048C00C4500433C4188C42F9D3094A094C0023D4
:10049C0001E013600432A242FBD300F021F8FFF715
:1004AC007DFF704700000020040000205405000868
:1004BC000400002024000020FEE7000080B400AF00
:1004CC00054B1B781A46054B1B681344034A1360F3
:1004DC0000BFBD4680BC70470000002020000020FB
:1004EC0070B500260C4D0D4C641BA410A64209D10E
:1004FC0000F01AF800260A4D0A4C641BA410A64200
:10050C0005D170BD55F8043B98470136EEE755F818
:10051C00043B98470136F2E74C0500084C050008EF
:10052C004C05000850050008F8B500BFF8BC08BC25
:10053C009E467047F8B500BFF8BC08BC9E46704795
:04054C003101000871
:040550000D01000891
:0405540001000000A2
:040000050800047D6E
:00000001FF
