:020000040800F2
:100000000050002021020008270200082B020008EF
:1000100043020008470200085F02000800000000D9
:10002000000000000000000000000000770200084F
:100030007B020008000000007F0200089107000812
:100040009102000891020008910200089102000844
:100050009102000891020008910200089102000834
:100060009102000891020008910200089102000824
:100070009102000891020008910200089102000814
:100080009102000891020008910200089102000804
:1000900091020008910200089102000891020008F4
:1000A00091020008910200089102000891020008E4
:1000B00091020008910200089102000891020008D4
:1000C00091020008910200089102000891020008C4
:1000D00091020008910200089102000891020008B4
:1000E000910200089102000891020008000000003F
:1000F0000000000000000000000000000000000000
:1001000000000000000000005FF808F100B583B0B7
:1001100000F006FA304B314A1360314A1360314B1C
:10012000314A32498B4204D21168196004330432D7
:10013000F7E72A4B1A682E4B9A4200D0FEE7284B6D
:100140001A682C4B9A42F9D1234B2B4A13602B4A45
:1001500013602B4B02E000221A600433294A9342B9
:10016000F9D3254B1B6813B9244B1B6803B1FEE779
:1001700000F0E2F9694601A800F0C6F9224C234BD1
:10018000E41AA4100025AC4214DC214C214BE41AE3
:10019000A4100025AC4213DC0099019800F0FCFA91
:1001A00005461D4C1D4BE41AA410002C0EDC2846FD
:1001B00000F0A4F9154B53F8253098470135E2E7D4
:1001C000144B53F8253098470135E3E7013C134BB6
:1001D00053F824309847E8E7BABADECA0000002096
:1001E00020000020000000203C080008240000201F
:1001F00078563412325476982400002030000020C3
:100200002400002034000020BC020008BC020008CA
:10021000BC020008BC020008BC020008BC020008C6
:1002200008B5FFF773FF00BEFEE71EF0040F0CBF1A
:10023000EFF30880EFF309807146124A104700BEC1
:10024000FEE700BEFEE71EF0040F0CBFEFF30880D0
:10025000EFF3098071460C4A104700BEFEE71EF01E
:10026000040F0CBFEFF30880EFF309807146074AD3
:10027000104700BEFEE700BEFEE700BEFEE700BE80
:10028000FEE770473F0200085B02000873020008A7
:0402900000BEFEE7C7
:100294003C08000800000020240000203C0800085E
:1002A40000000000000000002400002034000020B2
:0802B400000000000000000042
:1002BC00F8B505460C46494B98421BD003F58063B4
:1002CC00984217D003F58063984213D003F58063EE
:1002DC0098420FD003F5806398420BD003F58063EE
:1002EC00984207D003F58063984203D0B2213C4872
:1002FC0000F00CF9E3786BB1042B0BD0282B09D050
:10030C00482B07D0142B05D0102B03D01C2B01D05D
:10031C00182B14D12388BBB1E37803F00F063046B9
:10032C0013F0100F06D0A378013BDBB2022B10D8D0
:10033C00A078304323785BB32E68002310E0B32100
:10034C00274800F0E3F8E5E7B421254800F0DEF893
:10035C00E2E7BB21224800F0D9F8E9E76A610133F2
:10036C00072B14D801229A40218832EA0101F6D1D8
:10037C0099000F278F4026EA070600FA01F10E4379
:10038C00E1782829EAD04829E9D12A61E7E72E60EB
:10039C002388FF2B20D96E68002303E06A6116E0E6
:1003AC002A610133072B16D803F1080101228A4078
:1003BC00218832EA0101F4D199000F278F4026EAF7
:1003CC00070600FA01F10E43E1782829E6D0E1781E
:1003DC004829E6D1E4E76E60F8BD00BF0008014093
:1003EC00D807000838B504460D46144B98421CD06B
:1003FC0003F58063984218D003F58063984214D0BB
:10040C0003F58063984210D003F5806398420CD0BA
:10041C0003F58063984208D003F58063984204D0BA
:10042C0040F26911064800F071F80DB1256138BD34
:10043C004FF4B571024800F069F8F7E70008014085
:10044C00D807000838B504460D46144B98421CD00A
:10045C0003F58063984218D003F58063984214D05A
:10046C0003F58063984210D003F5806398420CD05A
:10047C0003F58063984208D003F58063984204D05A
:10048C0040F27911064800F041F80DB1656138BDB4
:10049C004FF4BD71024800F039F8F7E7000801404D
:1004AC00D807000838B504460D460E4B034003B977
:1004BC0020B940F24A410C4800F028F8012D06D82A
:1004CC005DB90A4A936923EA0404946138BD40F289
:1004DC004B41054800F01AF8F2E7044A93691C43B3
:1004EC009461F3E70200C0FF0C0800080010024002
:1004FC00FEE708B50120FFF7FBFF000001230360B6
:10050C00014B0B60704700BF0400002008B5FFF7DB
:10051C00F0FF000008B500F073F8024A024B9A6035
:10052C0008BD00BF0000000800ED00E008B500F0B9
:10053C008FF808BD82B00023019300932C4A1368F6
:10054C0043F4803313602A4B1B6803F4003300938D
:10055C00019B01330193009B1BB9019BB3F5A06F69
:10056C00F1D1234B1B6813F4003F06D001230093F9
:10057C00009B012B04D002B0704700230093F7E7D7
:10058C001C4B1A6842F010021A601A6822F003021F
:10059C001A601A6842F002021A60A3F580535A6876
:1005AC005A605A685A605A6842F480625A605A68B3
:1005BC0022F47C125A605A6842F4E8125A601A68A3
:1005CC0042F080721A600A4B1B6813F0007FFAD05D
:1005DC00074B5A6822F003025A605A6842F0020232
:1005EC005A60034B5B6803F00C03082BF9D1C2E78C
:1005FC00001002400020024008B5FFF79BFF08BD29
:10060C0008B5104B1A6842F001021A6059680E4A7C
:10061C000A405A601A6822F0847222F480321A60FE
:10062C001A6822F480221A605A6822F4FE025A6078
:10063C004FF41F029A60FFF7DFFF044B4FF000628C
:10064C009A6008BD001002400000FFF800ED00E0C9
:10065C001F4B5B6803F00C03042B15D0082B17D031
:10066C001BB11C4B1C4A1A6002E01A4B1A4A1A6046
:10067C00174B5B68C3F30313184AD35CDAB2154902
:10068C000B68D3400B607047124B134A1A60EFE7AC
:10069C000F4A53685268C3F38343023312F4803F0A
:1006AC000AD00B4A526812F4003F0BD00C4A02FBE2
:1006BC0003F3084A1360DBE7094A02FB03F3054A1C
:1006CC001360D5E7044A02FB03F3024A1360CFE739
:1006DC00001002401C00002000127A000C000020C8
:1006EC0000093D0030B583B001211020FFF7DAFE80
:1006FC004FF48055ADF8045003238DF806301023C9
:10070C008DF80730054C01A92046FFF7D1FD29468D
:10071C002046FFF767FE03B030BD00BF001001405C
:10072C000A4B1B680A4AA2FB03239B09013BB3F14A
:10073C00807F09D2074A5360074BF02183F82310BE
:10074C000023936007231360704700BF1C00002038
:10075C00D34D621010E000E000ED00E0034B186098
:10076C00024B1B68002BFBD1704700BF2C000020F4
:10077C00034B1B681BB1024A1368013B13607047A3
:10078C002C00002008B5FFF7F3FF08BD10B5FFF7EC
:10079C00C7FFFFF7A7FF00240CE040F2EE20FFF7A5
:1007AC00DDFF4FF480510848FFF71CFEFA20FFF7DD
:1007BC00D5FF01344FF480510348FFF743FE002C62
:1007CC00EBD14FF47A70EAE7001001402E2E2F7314
:1007DC00797374656D2F7372632F73746D33326616
:1007EC00312D7374647065726970682F73746D3316
:1007FC0032663130785F6770696F2E6300000000DD
:10080C002E2E2F73797374656D2F7372632F73741F
:10081C006D333266312D7374647065726970682F34
:10082C0073746D3332663130785F7263632E63009C
:10083C007856341228000020000000000000000050
:10084C0000000000010203040607080900A24A0484
:04085C003254769804
:040000050800010DE1
:00000001FF
