:020000040800F2
:1000000000000120B122000819180008211800087A
:1000100029180008311800083918000800000000ED
:10002000000000000000000000000000411800086F
:100030004F180008000000005D1800086B18000849
:100040000123000801230008012300080123000800
:1000500001230008012300080123000801230008F0
:1000600001230008012300080123000801230008E0
:1000700001230008012300080123000801230008D0
:10008000791800088D1800080123000800000000FE
:100090000000000000000000000000000123000834
:1000A000A1180008B5180008012300080123000862
:1000B0000123000801230008012300080919000892
:1000C0001D1900080123000801230008012300086E
:1000D0000123000801230008311900080000000076
:1000E000012300080123000801230008000000008C
:1000F00000000000000000000000000001230008D4
:10010000000000000123000801230008012300086B
:1001100000000000000000000000000000000000DF
:10012000012300080123000801230008012300081F
:100130000123000800000000000000000000000093
:100140000000000000000000000000000123000883
:1001500001230008012300080123000801230008EF
:100160000123000801230008000000000000000037
:10017000000000000000000000000000000000007F
:100180000000000001230008000000000000000043
:04019000012300083F
:1001940010B5054C237833B9044B13B10448AFF3BD
:1001A40000800123237010BD1C000020000000000B
:1001B4008C7B000808B5034B1BB103490348AFF31C
:1001C400008008BD00000000200000208C7B000897
:1001D40053B94AB9002908BF00281CBF4FF0FF31AA
:1001E4004FF0FF3000F088B9ADF1080C6DE904CE92
:1001F40000F006F8DDF804E0DDE9022304B07047FE
:100204002DE9F047089D8E4604468846002B4AD1C6
:100214008A42174662D9B2FA82F64EB1C6F1200379
:1002240001FA06F820FA03F3B74043EA0808B44099
:100234004FEA174E1FFA87FCB8FBFEF1230C0EFBA6
:10024400118843EA084301FB0CF29A4209D9FB18CE
:1002540001F1FF3080F0EA809A4240F2E7800239EF
:100264003B449A1AA3B2B2FBFEF00EFB102243EAFF
:10027400024300FB0CFC9C4509D9FB1800F1FF323A
:1002840080F0D6809C4540F2D3803B44023840EA5B
:100294000140A3EB0C0300211DB1F3400022C5E98A
:1002A4000032BDE8F0878B4205D90DB1C5E90001E4
:1002B40000210846F5E7B3FA83F1002946D17345D6
:1002C40002D3824200F20581841A6EEB03020120FC
:1002D4009046002DE5D0C5E90048E2E7002A00F089
:1002E4009080B2FA82F6002E40F0A4808A1A030CA1
:1002F4004FEA174E80B2BCB20121B2FBFEFC0EFBEA
:100304001C2243EA024304FB0CF29A4207D9FB186D
:100314000CF1FF3802D29A4200F2E080C4469B1AE4
:10032400B3FBFEF20EFB123340EA034302FB04F478
:100334009C4207D9FB1802F1FF3002D29C4200F222
:10034400CA8002461B1B42EA0C40A5E7C1F1200605
:100354008B4022FA06F71F430EFA01F420FA06F343
:100364002EFA06FE4FEA1749234300FA01F81FFA52
:1003740087FCBEFBF9F01C0C09FB10EE44EA0E44AA
:1003840000FB0CFEA64502FA01F209D93C1900F162
:10039400FF3A80F09C80A64540F2998002383C44A4
:1003A400A4EB0E041FFA83FEB4FBF9F309FB134418
:1003B4004EEA044403FB0CFCA44508D93C1903F1A0
:1003C400FF3E80F08280A4457FD9023B3C4443EA4F
:1003D4000040A4EB0C04A0FB02EC64457346E14628
:1003E40062D35FD05DB1B8EB030264EB090404FA95
:1003F40006F622FA01F31E43CC40C5E9006400214D
:100404004FE7B1FBF2FC010C41EA0E4180B240EA35
:1004140001423B4638463C46B846BE462026B1FB20
:10042400F7F1A2EB080241EA0C4166E7014618E73E
:1004340010462CE7C6F120022EFA02F3B740B14071
:1004440020FA02F24FEA174E0A43B3FBFEF8BCB29D
:100454000EFB1833110C41EA034108FB04F9B040C8
:1004640089454FEA104380B23ED9791808F1FF3C20
:1004740001D289451FD8A1EB0901B1FBFEF909FBA3
:1004840004F80EFB191192B242EA0142424529D204
:10049400BA1809F1FF31C4D24245C2D2A9F102010E
:1004A4003A44BEE7F0459DD2BEEB02036CEB070C69
:1004B4000138E14696E7A7EB09094944A8F1020C83
:1004C400B1FBFEF909FB04F8DBE773467FE750460E
:1004D40066E70846FDE63B44023A33E7ACF1020C1A
:1004E4003B441CE749469CE7A1EB0901C446B1FB28
:1004F400FEF909FB04F8C4E7704700BF80B485B077
:1005040000AF78600B467B800023FB730023BB8124
:1005140023E0BB897A6813441A78FB7B5340FB734E
:100524000023FB7213E097F90F30002B08DA97F9D8
:100534000F305B005BB283F007035BB2DBB202E017
:10054400FB7B5B00DBB2FB73FB7A0133FB72FB7A50
:10055400072BE8D9BB890133BB81BA897B889A42CE
:10056400D7D3FB7B18461437BD465DF8047B704730
:1005740080B500AF40220849084806F04FF9074B00
:10058400DB6B1B681A68054BDB6B1B6822F00802E7
:100594001A6000BF80BD00BF38000020DC030020CB
:1005A40080B582B000AF78600B467B807B681B68A7
:1005B4000D4A934213D17B88184600F01BF8402261
:1005C4000A490B4806F02AF9094BDB6B1B681A68C9
:1005D400074BDB6B1B6822F008021A6000E000BFC7
:1005E4000837BD4680BD00BF0044004038000020ED
:1005F400DC03002080B58AB000AF0346FB80FB8893
:10060400042B40F2A280584B1B78AA2B40F09F8009
:10061400554B5B78552B40F09A80534B9B7887F869
:100624002530514BDB7887F8243097F824309BB27F
:1006340005339BB2FA889A4240F08B8097F82430B5
:100644000433494AD35C87F8233097F824309BB2AB
:1006540002339BB219464548FFF750FF034687F81B
:10066400223097F8232097F822309A4273D1404BD6
:10067400FB6197F82530042B62D0042B6DDC012B31
:1006840002D0032B42D068E097F82430092B66D1BE
:10069400002387F827300FE097F82730FA691A44C7
:1006A40097F8273007F10C010B4412781A7097F869
:1006B4002730013387F8273097F82730082BEBD9F8
:1006C400002387F826301CE097F826305B00283397
:1006D4003B4433F91C3C07EE903AB8EEE77AF2EE6D
:1006E400046AC7EE267AC7ED067A97F8263097EDA6
:1006F400060A184600F0CCF997F82630013387F83B
:10070400263097F82630032BDED929E0194BAA228C
:100714001A70184B55225A70164B03229A70154BB7
:100724000022DA7002211448FFF7E8FE03461A4655
:10073400104B1A7105220F49104805F0F3FF0FE022
:1007440000F018FF00F0FAF90AE000BF08E000BF6B
:1007540006E000BF04E000BF02E000BF00E000BF0D
:100764002837BD4680BD00BF380000203A00002075
:100774003C000020780000207A000020DC030020E8
:1007840080B400AF00BFBD465DF8047B7047000035
:1007940090B58DB000AF574B93F8B530002B00F0F7
:1007A400A280554806F070FB034603F02103002B9A
:1007B40040F09B804F4B002283F8B520002387F83C
:1007C4002F303FE097F82F304A4A04339B001344FC
:1007D400D3ED007AB2EE047A67EE877A97F82F3079
:1007E400FDEEE77A17EE902A12B25B0030333B44F9
:1007F40023F8302C97F82F4097F82F30184600F044
:10080400FBFA0246A31C9B0030333B4443F8302CD4
:1008140097F82F30374A08339B001344D3ED007AFE
:1008240097F82F30FDEEE77A17EE902A12B20C33C8
:100834005B0030333B4423F8302C97F82F300133DE
:1008440087F82F3097F82F30032BBBD901F0BEFD6A
:1008540003463B62002387F82430252387F82D3094
:10086400264BAA221A70254B55225A70234B02227A
:100874009A70224A97F82D30D370214BBB62002323
:1008840087F82E300EE097F82E303A461A4497F83F
:100894002E30B96A0B4412781A7097F82E3001334F
:1008A40087F82E3097F82E2097F82D309A42EAD305
:1008B40097F82D309BB202339AB297F82D301C1D55
:1008C40011461048FFF71AFE03461A460B4B1A55F9
:1008D40097F82D309BB205339BB21A460749064858
:1008E40005F020FF02E000BF00E000BF3437BD4642
:1008F40090BD00BFB8000020DC0300207800002079
:100904007C0000207A00002080B582B000AF002374
:10091400FB712BE0FB791F4A9B0013444FF000024C
:100924001A60FB791B4A04339B0013444FF0000206
:100934001A60FB79174A08339B0013444FF00002F6
:100944001A60FB795B013033124A13449FED122A7B
:10095400DFED121A9FED121AF2EE000AB0EE000A51
:10096400184600F051FEFB790133FB71FB79032B30
:10097400D0D9084B0022C3F8B020064B002283F8DC
:10098400B420044B002283F8B52000BF0837BD46CD
:1009940080BD00BFB80000200000FA440038834541
:1009A400CDCC4C3D90B583B000AF00F05FF900238F
:1009B400FB710FE0FC79FB79184600F037FAF0EE92
:1009C400407A314A231D9B001344C3ED007AFB791E
:1009D4000133FB71FB79032BECD92B4B93F8B43027
:1009E400002B3FD00023BB7138E0BB795B0130336F
:1009F400254A1A44BB7924499B000B44D3ED007A61
:100A0400BB79214904339B000B4493ED007ABC79F4
:100A14009FED1E1AF0EE470AB0EE670A104600F08A
:100A240017FEF0EE407A184A04F108039B001344C1
:100A3400C3ED007ABB79144A08339B001344D3ED09
:100A4400007AFDEEE77A17EE903A1AB2BB791146B6
:100A5400184600F0A9FCBB790133BB71BB79032BA9
:100A6400C3D901E000F070FD074B012283F8B520E3
:100A7400054BD3F8B0300133034AC2F8B03000BF9D
:100A84000C37BD4690BD00BFB80000200AD7233CF8
:100A940080B483B000AF034687ED000AFB71FB7995
:100AA400032B1CD8D7ED007A9FED107AF4EEC77AA9
:100AB400F1EE10FA01DD0E4B3B60D7ED007A9FEDAD
:100AC4000D7AF4EEC77AF1EE10FA01D50A4B3B60C9
:100AD400FB790A4A9B0013443A681A6000E000BF9D
:100AE4000C37BD465DF8047B704700BF0000164319
:100AF40000001643000016C3000016C3B80000200F
:100B040080B582B000AF0023FB710AE0FB795B0182
:100B14003033094A1344184600F03DFEFB79013393
:100B2400FB71FB79032BF1D9034B012283F8B42029
:100B340000BF0837BD4680BDB800002080B500AFB7
:100B4400034B002283F8B42000F0FEFC00BF80BDFC
:100B5400B800002080B582B000AF00237B60104B4A
:100B64001B6B0F4A43F4001313630D4B1B6B03F40D
:100B740000137B607B6800220021102001F00DFD32
:100B8400102001F026FD00220021112001F005FDB6
:100B9400112001F01EFD00BF0837BD4680BD00BF17
:100BA4000038024080B582B000AF3C21294804F0EF
:100BB400F5FF3C21284804F0F1FF3C21274804F0CC
:100BC400EDFF3C21264804F0E9FF0023FB7139E0E6
:100BD400FA79244913469B0013449B000B440022DA
:100BE4001A60FA791F4913469B0013449B000B4477
:100BF400043300221A60FA791A4913469B001344FD
:100C04009B000B44083300221A60FA7915491346F5
:100C14009B0013449B000B440C334FF000021A60FA
:100C2400FB79114A52F823301B68FA79596A0D4846
:100C340013469B0013449B00034410331960FB7953
:100C44000133FB71FB79032BC2D900BF00BF083706
:100C5400BD4680BD74020020BC02002004030020B5
:100C64004C030020700100200000002080B485B0F7
:100C740000AF0023FB73A8E0FB7B594A52F82330F2
:100C84001B685B6ABB60FB7B564AD35C002B1ED09F
:100C9400FA7B554913469B0013449B000B441033C5
:100CA4001B68BA68D31A3B60FA7B4F4913469B0012
:100CB40013449B000B441968FA7B3B6819444A4867
:100CC40013469B0013449B000344196021E0BB6856
:100CD40099B2FA7B444813469B0013449B00034497
:100CE40010331B689BB2CB1A9BB2FB80FA7B3E4944
:100CF40013469B0013449B000B441968B7F9063054
:100D0400FA7B1944384813469B0013449B00034460
:100D14001960FA7B344913469B0013449B000B442F
:100D24001033BA681A60FA7B2F4913469B001344A8
:100D34009B000B441968FA7B2B4813469B00134411
:100D44009B00034404331B68FA7BC91A26481346E4
:100D54009B0013449B00034408331960F97BFA7B1E
:100D640021480B469B000B449B00034419681E4812
:100D740013469B0013449B00034404331960FA7B1D
:100D8400194913469B0013449B000B4408331B680A
:100D940007EE903AF8EEE77ADFED146A87EEA67A6A
:100DA400DFED136AC7EE267AFA7B9FED127A67EEBF
:100DB400877A0D4913469B0013449B000B440C3364
:100DC400C3ED007AFB7B0133FB73FB7B032B7FF6C4
:100DD40053AF00BF00BF1437BD465DF8047B7047B6
:100DE40000000020A47B0008700100200000A5443E
:100DF4000AD7233C0000704280B483B000AF03469E
:100E0400FB71FB79032B01D9002307E0FA7906492A
:100E140013469B0013449B000B441B6818460C3775
:100E2400BD465DF8047B70477001002080B483B038
:100E340000AF0346FB71FB79032B02D94FF000038B
:100E440008E0FA79084913469B0013449B000B44BD
:100E54000C331B6807EE903AB0EE670A0C37BD46B8
:100E64005DF8047B704700BF7001002080B58AB034
:100E740000AF07F1140300221A605A609A60DA6026
:100E84001A6100233B61324B1B6B314A43F004036C
:100E940013632F4B1B6B03F004033B613B6900237B
:100EA400FB602B4B1B6B2A4A43F080031363284BD4
:100EB4001B6B03F08003FB60FB680023BB60244BC7
:100EC4001B6B234A43F001031363214B1B6B03F099
:100ED4000103BB60BB6800237B601D4B1B6B1C4A7A
:100EE40043F0020313631A4B1B6B03F002037B6092
:100EF4007B6800224FF40051164802F019F90022D1
:100F04004FF23301144802F013F94FF400537B619C
:100F14000123BB610023FB6100233B6207F114033F
:100F240019460C4801F080FF4FF233037B61012323
:100F3400BB610023FB6100233B6207F114031946E4
:100F4400054801F071FF00BF2837BD4680BD00BFD2
:100F540000380240000802400004024080B500AF9F
:100F6400124B134A1A60114B124A5A600F4B00225B
:100F74009A600E4B0022DA600C4B4FF480421A61E7
:100F84000A4B00225A61094B00229A61074B002246
:100F9400DA61064B00221A62044802F0FDF80346A7
:100FA400002B01D000F010F900BF80BDC00100206B
:100FB40000540040801A060080B58AB000AF786003
:100FC40007F1140300221A605A609A60DA601A6109
:100FD4007B681B68214A93423CD100233B61204B30
:100FE4001B6B1F4A43F0020313631D4B1B6B03F07F
:100FF40002033B613B694FF440737B611223BB6185
:101004000023FB6103233B6204237B6207F1140387
:101014001946144801F008FF0023FB60104B1B6CB9
:101024000F4A43F4001313640D4B1B6C03F40013B9
:10103400FB60FB68002202211F2001F0AEFA1F2092
:1010440001F0C7FA00220221202001F0A6FA202094
:1010540001F0BFFA00BF2837BD4680BD00540040F0
:10106400003802400004024080B500AF01F048F9A6
:1010740000F040F8FFF7FAFEFFF76CFDFFF76EFF94
:1010840000F082FC00F028FD00F07AFD00F0CCFDB9
:1010940000F01EFE00F070FE01F026F800F036F9B4
:1010A400FFF780FDFFF730FCFFF762FA0D4804F00C
:1010B4006DFBFFF725FDFFF763FBFFF769FB0A4BA9
:1010C400D3F8B020094BA3FB02135B09642101FB95
:1010D40003F3D31A002BEED14FF40051044802F06D
:1010E40040F8E8E794030020B80000201F85EB5186
:1010F4000008024080B594B000AF07F1200330220D
:101104000021184606F014FD07F10C0300221A60B2
:101114005A609A60DA601A610023BB60284B1B6C2A
:10112400274A43F080531364254B1B6C03F0805310
:10113400BB60BB6800237B60224B1B6823F44043E5
:10114400204A43F4004313601E4B1B6803F44043DE
:101154007B607B6801233B624FF480337B62022314
:10116400BB634FF48003FB6319233B64A8237B64B4
:101174000223BB640423FB6407F12003184603F035
:101184005DFE0346002B01D000F01EF80F23FB6028
:1011940002233B6100237B614FF48053BB61002336
:1011A400FB6107F10C030221184604F0BFF8034663
:1011B400002B01D000F008F800BF5037BD4680BDB9
:1011C400003802400070004080B400AF72B600BF27
:1011D40000BFFDE780B582B000AF0346FB710B464C
:1011E400BB7113467B71FA79174913465B001344AC
:1011F400DB000B4408331868FA79134913465B0083
:101204001344DB000B440C331B88BA79194601F0F4
:101214008FFFFA790C4913465B001344DB000B443F
:1012240010331868FA79084913465B001344DB004D
:101234000B4414331B887A79194601F079FF00BFF7
:101244000837BD4680BD00BFA87B000880B483B0CA
:1012540000AF03460A46FB711346BB80FA792A495C
:1012640013465B001344DB000B4404331B68002B60
:101274000BD1FA79244913465B001344DB000B4479
:101284001B681B68BA885A6338E0FA791E4913460A
:101294005B001344DB000B4404331B68042B0BD1A9
:1012A400FA79194913465B001344DB000B441B68AD
:1012B4001A68BB88936321E0FA79134913465B00EB
:1012C4001344DB000B4404331B68082B0BD1FA795D
:1012D4000D4913465B001344DB000B441B681A687A
:1012E400BB88D3630AE0FA79074913465B001344C9
:1012F400DB000B441B681A68BB88136400BF0C37FF
:10130400BD465DF8047B7047A87B000880B582B0B9
:1013140000AF0021224804F0EBFA0421204804F035
:10132400E7FA08211E4804F0E3FA0C211C4804F0F3
:10133400DFFA0023FB712AE0FB7900211846FFF74E
:1013440085FFFB79002200211846FFF743FFFA7955
:10135400144913465B0013445B000B4402221A70C9
:10136400FA79104913465B0013445B000B440233C3
:1013740000221A80FA790B4913465B0013445B0080
:101384000B44043300221A70FB790133FB71FB799F
:10139400032BD1D900BF00BF0837BD4680BD00BFB5
:1013A4002C0200201402002080B584B000AF034654
:1013B4000A46FB711346BB80FB79032B00F2848041
:1013C400B7F9043041F26702934202DD41F2670348
:1013D400BB80B7F904303E4A934202DA4EF6997361
:1013E400BB80B7F90430002B04D1FB79184600F018
:1013F40073F86AE0B7F90430002BD4BF012300234B
:10140400DBB2FB73B7F90430002B03DCBB885B420F
:101414009BB200E0BB88BB81FA792E4913465B007E
:1014240013445B000B441B78FA7B9A4218D0FA7978
:10143400284913465B0013445B000B441B78022BC2
:101444000ED0FA79234913465B0013445B000B4426
:101454001B78032B04D0FB79184600F03DF834E0E8
:10146400FB7B002B06D1FB79002201211846FFF7F4
:10147400B1FE05E0FB79012200211846FFF7AAFE20
:10148400BA89FB7911461846FFF7E0FEFA7911494B
:1014940013465B0013445B000B44FA7B1A70FA7921
:1014A4000C4913465B0013445B000B440233BA89B6
:1014B4001A80FA79074913465B0013445B000B4416
:1014C400043301221A7000E000BF1037BD4680BD0E
:1014D40099EFFFFF1402002080B582B000AF0346ED
:1014E400FB71FB79032B28D8FB7900211846FFF701
:1014F400ADFEFB79002200211846FFF76BFEFA7956
:10150400104913465B0013445B000B440233002272
:101514001A80FA790B4913465B0013445B000B44B1
:1015240002221A70FA79074913465B0013445B00E0
:101534000B44043300221A7000E000BF0837BD4694
:1015440080BD00BF1402002080B582B000AF00232C
:10155400FB7106E0FB791846FFF7BEFFFB79013308
:10156400FB71FB79032BF5D900BF00BF0837BD46DB
:1015740080BD000080B483B000AF204B00225A63CA
:101584001E4B00229A631D4B0022DA631B4B002280
:101594001A641B4B5B691A4A23F4704323F0330328
:1015A40053610023FB711FE0FA79164913465B006F
:1015B40013445B000B44023300221A80FA79114968
:1015C40013465B0013445B000B4402221A70FA7941
:1015D4000C4913465B0013445B000B4404330022A4
:1015E4001A70FB790133FB71FB79032BDCD900BF43
:1015F40000BF0C37BD465DF8047B70470000014016
:10160400000402401402002080B586B000AF786167
:1016140087ED040AC7ED030A87ED021AC7ED011A24
:1016240087ED002A7B693A691A607B69FA685A6017
:101634007B69BA689A607B697A685A617B693A689F
:101644009A61786900F0A7F800BF1837BD4680BDDD
:1016540080B489B000AFF86087ED020AC7ED010AD3
:1016640087ED001A97ED027AD7ED017A77EE677A63
:10167400C7ED067AFB68D3ED007A97ED067A67EE3C
:10168400277AC7ED057AFB6893ED037AFB68D3EDFF
:10169400016AD7ED067A66EEA76AD7ED007A66EEA0
:1016A400A77A77EE277AFB68C3ED037AFB6893ED9C
:1016B400037AFB68D3ED067AB4EEE77AF1EE10FA1A
:1016C40003DDFB689A69FB68DA60FB6893ED037AD3
:1016D400FB68D3ED067AF1EE677AB4EEE77AF1EEC1
:1016E40010FA07D5FB68D3ED067AF1EE677AFB684A
:1016F400C3ED037AFB68D3ED027AB1EE677AFB6837
:10170400D3ED047AD7ED016A76EEE77A67EE276ABD
:1017140097ED007AC6EE877AC7ED047AFB687A689B
:101724001A61FB6893ED037AD7ED057A77EE277A91
:1017340097ED047A77EE277AC7ED077AFB68D3ED45
:10174400057A97ED077AB4EEE77AF1EE10FA02DD46
:10175400FB685B69FB61FB68D3ED057AF1EE677AA0
:1017640097ED077AB4EEE77AF1EE10FA06D5FB6846
:10177400D3ED057AF1EE677AC7ED077AFB68FA696B
:10178400DA61FB6907EE903AB0EE670A2437BD468A
:101794005DF8047B704780B483B000AF78607B68E9
:1017A4004FF00002DA607B684FF000021A617B6838
:1017B4004FF00002DA6100BF0C37BD465DF8047BD0
:1017C4007047000080B483B000AF00237B60104BEF
:1017D4005B6C0F4A43F4804353640D4B5B6C03F41E
:1017E40080437B607B6800233B60094B1B6C084A89
:1017F40043F080531364064B1B6C03F080533B602F
:101804003B6800BF0C37BD465DF8047B704700BFE2
:101814000038024080B400AF00BFFDE780B400AFE1
:1018240000BFFDE780B400AF00BFFDE780B400AFA8
:1018340000BFFDE780B400AF00BFFDE780B400AF98
:1018440000BFBD465DF8047B704780B400AF00BFA5
:10185400BD465DF8047B704780B400AF00BFBD4651
:101864005DF8047B704780B500AF00F09BFD00BFBE
:1018740080BD000080B500AF024801F05DF800BFF4
:1018840080BD00BF2404002080B500AF024801F0F1
:1018940053F800BF80BD00BF8404002080B500AFB2
:1018A400024804F009FA00BF80BD00BF2C020020EA
:1018B40080B500AF114B1B681B6903F00103012BBA
:1018C40009D10E4B1B68DB6803F00103012B02D125
:1018D4000A4804F0F1F90A4B1B681B6903F0010381
:1018E400012B09D1064B1B68DB6803F00103012BB4
:1018F40002D1034804F0E0F900BF80BD2C020020AF
:101904009403002080B500AF024801F09EFD00BFA3
:1019140080BD00BFC001002080B500AF024801F0C7
:1019240005FF00BF80BD00BFC001002080B500AF2F
:10193400024804F0CDFF00BF80BD00BFDC030020DF
:1019440080B582B000AF78607B681B68044A93421C
:1019540001D1FFF727F800BF0837BD4680BD00BF9F
:101964000044014080B400AF064BD3F88830054AE8
:1019740043F47003C2F8883000BFBD465DF8047BB1
:10198400704700BF00ED00E080B592B000AF07F1F2
:10199400400300221A605A6007F1240300221A60EF
:1019A4005A609A60DA601A615A619A613B1D20227A
:1019B4000021184606F0BCF8454B464A1A60444BD1
:1019C40000225A60424B00229A60414B41F2670266
:1019D400DA603F4B00221A613D4B00225A613C4BB6
:1019E40080229A613A4803F033FF0346002B01D06A
:1019F400FFF7EAFB00233B6400237B6407F1400309
:101A04001946334804F06AFD0346002B01D0FFF762
:101A1400DBFB60237B620023BB620023FB620023A9
:101A24003B6300237B630023BB630023FB6307F159
:101A3400240300221946264804F02EFA0346002BFC
:101A440001D0FFF7C1FB07F1240304221946204803
:101A540004F022FA0346002B01D0FFF7B5FB07F18F
:101A64002403082219461A4804F016FA0346002BE8
:101A740001D0FFF7A9FB07F124030C2219461448EF
:101A840004F00AFA0346002B01D0FFF79DFB002364
:101A94007B600023BB600023FB6000233B610023C9
:101AA4007B614FF40053BB6100233B623B1D19462D
:101AB400074804F081FD0346002B01D0FFF784FBA7
:101AC400034800F0D7FA00BF4837BD4680BD00BFC9
:101AD4002C0200200000014080B58CB000AF07F15B
:101AE4000C0324220021184606F022F83B1D002294
:101AF4001A605A60214B4FF080421A601F4B00223B
:101B04005A601E4B00229A601C4B4FF0FF32DA6081
:101B14001A4B00221A61194B00229A610323FB60BD
:101B240000233B6101237B610023BB610423FB6130
:101B340000233B6201237B620023BB620423FB621C
:101B440007F10C0319460D4803F082FF0346002BEE
:101B540001D0FFF739FB00237B600023BB603B1DF2
:101B64001946064804F0BAFC0346002B01D0FFF7DF
:101B74002BFB00BF3037BD4680BD00BF7402002080
:101B840080B58CB000AF07F10C0324220021184665
:101B940005F0CEFF3B1D00221A605A60204B214AFB
:101BA4001A601F4B00225A601D4B00229A601C4B86
:101BB4004FF6FF72DA601A4B00221A61184B0022AA
:101BC4009A610323FB6000233B6101237B610023B3
:101BD400BB610423FB6100233B6201237B6200237E
:101BE400BB620423FB6207F10C0319460C4803F0A3
:101BF4002FFF0346002B01D0FFF7E6FA00237B609A
:101C04000023BB603B1D1946054804F067FC0346EE
:101C1400002B01D0FFF7D8FA00BF3037BD4680BD96
:101C2400BC0200200004004080B58CB000AF07F176
:101C34000C0324220021184605F07AFF3B1D0022E4
:101C44001A605A60204B214A1A601F4B00225A60C6
:101C54001D4B00229A601C4B4FF6FF72DA601A4B40
:101C640000221A61184B00229A610323FB600023AF
:101C74003B6101237B610023BB610423FB610023DF
:101C84003B6201237B620023BB620423FB6207F1F6
:101C94000C0319460C4803F0DBFE0346002B01D06D
:101CA400FFF792FA00237B600023BB603B1D1946BB
:101CB400054804F013FC0346002B01D0FFF784FA17
:101CC40000BF3037BD4680BD04030020000800403B
:101CD40080B58CB000AF07F10C0324220021184614
:101CE40005F026FF3B1D00221A605A60204B214A52
:101CF4001A601F4B00225A601D4B00229A601C4B35
:101D04004FF0FF32DA601A4B00221A61184B00229E
:101D14009A610323FB6000233B6101237B61002361
:101D2400BB610423FB6100233B6201237B6200232C
:101D3400BB620423FB6207F10C0319460C4803F051
:101D440087FE0346002B01D0FFF73EFA00237B6099
:101D54000023BB603B1D1946054804F0BFFB034646
:101D6400002B01D0FFF730FA00BF3037BD4680BDED
:101D74004C030020000C004080B500AF0E4B0F4A0E
:101D84001A600D4B40F247325A600B4B00229A60A6
:101D9400094B40F2E732DA60074B00221A61064B26
:101DA40080229A61044803F0A1FC0346002B01D071
:101DB400FFF70AFA00BF80BD9403002000440140ED
:101DC40080B584B000AF78607B681B68124A934288
:101DD4001DD10023FB60114B5B6C104A43F00103DF
:101DE40053640E4B5B6C03F00103FB60FB68002241
:101DF4000121182000F0D1FB182000F0EAFB00229A
:101E04000021192000F0C9FB192000F0E2FB00BFFB
:101E14001037BD4680BD00BF0000014000380240BD
:101E240080B590B000AF786007F12C0300221A60EF
:101E34005A609A60DA601A617B681B68B3F1804F5C
:101E44004AD10023BB62714B1B6C704A43F00103FF
:101E540013646E4B1B6C03F00103BB62BB6A00236B
:101E64007B626A4B1B6B694A43F001031363674B44
:101E74001B6B03F001037B627B6A00233B62634BB1
:101E84001B6B624A43F002031363604B1B6B03F04A
:101E940002033B623B6A2023FB6202233B63002371
:101EA4007B630023BB630123FB6307F12C03194607
:101EB400574800F0B9FF0823FB6202233B63002369
:101EC4007B630023BB630123FB6307F12C031946E7
:101ED400504800F0A9FF94E07B681B684E4A934287
:101EE4002CD10023FB61494B1B6C484A43F002038D
:101EF4001364464B1B6C03F00203FB61FB69002374
:101F0400BB61424B1B6B414A43F0010313633F4BDC
:101F14001B6B03F00103BB61BB69C023FB6202239B
:101F24003B6300237B630023BB630223FB6307F152
:101F34002C031946364800F077FF62E07B681B6883
:101F4400364A93422CD100237B61304B1B6C2F4AC1
:101F540043F0040313642D4B1B6C03F004037B61F7
:101F64007B6900233B61294B1B6B284A43F0020326
:101F74001363264B1B6B03F002033B613B69C023D5
:101F8400FB6202233B6300237B630023BB630223C6
:101F9400FB6307F12C0319461E4800F045FF30E0AF
:101FA4007B681B681E4A93422BD10023FB60174BAE
:101FB4001B6C164A43F008031364144B1B6C03F0A8
:101FC4000803FB60FB680023BB60104B1B6B0F4ACC
:101FD40043F0010313630D4B1B6B03F00103BB6060
:101FE400BB680323FB6202233B6300237B63002360
:101FF400BB630223FB6307F12C031946044800F07A
:1020040013FF00BF4037BD4680BD00BF003802400B
:1020140000000240000402400004004000080040A8
:10202400000C004080B584B000AF78607B681B680A
:102034000E4A934215D10023FB600D4B5B6C0C4A96
:1020440043F4003353640A4B5B6C03F40033FB60CA
:10205400FB6800220021192000F09FFA192000F0EB
:10206400B8FA00BF1037BD4680BD00BF0044014030
:102074000038024080B588B000AF786007F10C03E7
:1020840000221A605A609A60DA601A617B681B68E1
:10209400124A93421ED10023BB60114B1B6B104AA2
:1020A40043F0010313630E4B1B6B03F00103BB608E
:1020B400BB684FF47063FB6002233B6100237B61C8
:1020C4000023BB610123FB6107F10C03194605489A
:1020D40000F0AAFE00BF2037BD4680BD00000140CD
:1020E400003802400000024080B500AF114B124A94
:1020F4001A60104B4FF461225A600E4B00229A6012
:102104000C4B0022DA600B4B00221A61094B0C22A3
:102114005A61084B00229A61064B0022DA61054895
:1021240004F0B0FA0346002B01D0FFF74DF800BFCE
:1021340080BD00BFDC0300200044004080B58AB0AD
:1021440000AF786007F1140300221A605A609A60A5
:10215400DA601A617B681B684D4A934240F09380B1
:1021640000233B614B4B1B6C4A4A43F4003313641A
:10217400484B1B6C03F400333B613B690023FB6059
:10218400444B1B6B434A43F001031363414B1B6BEA
:1021940003F00103FB60FB680C237B610223BB613A
:1021A4000023FB6103233B6207237B6207F11403D3
:1021B4001946394800F038FE384B394A1A60374B13
:1021C4004FF000625A60354B00229A60334B002274
:1021D400DA60324B4FF480621A61304B00225A614C
:1021E4002E4B00229A612D4B4FF48072DA612B4BF7
:1021F4004FF440321A62294B00225A62274800F0F9
:1022040003FA0346002B01D0FEF7DEFF7B68234A66
:10221400DA63224A7B689363224B234A1A60214B78
:102224004FF000625A601F4B40229A601D4B0022FF
:10223400DA601C4B4FF480621A611A4B00225A6117
:10224400184B00229A61174B0022DA61154B4FF4A8
:1022540040321A62134B00225A62124800F0D4F939
:102264000346002B01D0FEF7AFFF7B680D4A9A634B
:102274000C4A7B68936300220021262000F08DF92C
:10228400262000F0A6F900BF2837BD4680BD00BF58
:1022940000440040003802400000024024040020B2
:1022A4008860024084040020A0600240DFF834D03B
:1022B400FFF758FB0C480D490D4A002302E0D4589F
:1022C400C4500433C4188C42F9D30A4A0A4C00237C
:1022D40001E013600432A242FBD305F031FCFEF7A7
:1022E400C3FE704700000120000000201C000020F5
:1022F400387C00081C000020E8040020FEE70000F1
:1023040080B500AF0E4B1B680D4A43F40073136095
:102314000B4B1B680A4A43F480631360084B1B6829
:10232400074A43F480731360032000F02BF90F2055
:1023340000F008F8FFF746FA0023184680BD00BFF6
:10234400003C024080B582B000AF7860124B1A683E
:10235400124B1B7819464FF47A73B3FBF1F3B2FBBB
:10236400F3F3184600F043F90346002B01D0012390
:102374000EE07B680F2B0AD8002279684FF0FF30FB
:1023840000F00BF9064A7B681360002300E0012388
:1023940018460837BD4680BD1000002018000020F4
:1023A4001400002080B400AF064B1B781A46064B7D
:1023B4001B681344044A136000BFBD465DF8047BE8
:1023C400704700BF18000020E404002080B400AF70
:1023D400034B1B681846BD465DF8047B704700BF7D
:1023E400E404002080B485B000AF78607B6803F01B
:1023F4000703FB600C4BDB68BB60BA684FF6FF0356
:102404001340BB60FB681A02BB68134343F0BF630D
:1024140043F40033BB60044ABB68D36000BF143785
:10242400BD465DF8047B704700ED00E080B400AF6A
:10243400044BDB681B0A03F007031846BD465DF82E
:10244400047B704700ED00E080B483B000AF034626
:10245400FB7197F90730002B0BDBFB7903F01F02AC
:10246400074997F907305B09012000FA02F241F8A5
:10247400232000BF0C37BD465DF8047B704700BFC6
:1024840000E100E080B483B000AF03463960FB7123
:1024940097F90730002B0ADB3B68DAB20C4997F94D
:1024A40007301201D2B20B4483F800230AE03B68E0
:1024B400DAB20849FB7903F00F03043B1201D2B2EC
:1024C4000B441A7600BF0C37BD465DF8047B704799
:1024D40000E100E000ED00E080B489B000AFF860F6
:1024E400B9607A60FB6803F00703FB61FB69C3F121
:1024F4000703042B28BF0423BB61FB690433062BA9
:1025040002D9FB69033B00E000237B614FF0FF32FB
:10251400BB6902FA03F3DA43BB681A407B699A4049
:102524004FF0FF317B6901FA03F3D9437B680B4019
:10253400134318462437BD465DF8047B70470000FA
:1025440080B582B000AF78607B68013BB3F1807FD7
:1025540001D301230FE00A4A7B68013B53600F213A
:102564004FF0FF30FFF78EFF054B00229A60044BBB
:1025740007221A60002318460837BD4680BD00BFF5
:1025840010E000E080B582B000AF78607868FFF7B3
:1025940029FF00BF0837BD4680BD80B586B000AFB7
:1025A4000346B9607A60FB7300237B61FFF73EFF4B
:1025B40078617A68B9687869FFF78EFF024697F9FF
:1025C4000F3011461846FFF75DFF00BF1837BD46B0
:1025D40080BD80B582B000AF0346FB7197F9073028
:1025E4001846FFF731FF00BF0837BD4680BD80B5F0
:1025F40082B000AF78607868FFF7A2FF0346184600
:102604000837BD4680BD000080B586B000AF786055
:1026140000237B61FFF7DAFE38617B68002B01D170
:10262400012399E07B68022283F835207B6800222D
:1026340083F834207B681B681A687B681B6822F067
:1026440001021A600FE0FFF7C1FE02463B69D31A8C
:10265400052B08D97B6820225A657B68032283F8FE
:102664003520032378E07B681B681B6803F00103B3
:10267400002BE8D17B681B681B687B617A69384B47
:1026840013407B617B685A687B689B681A437B684C
:10269400DB681A437B681B691A437B685B691A43CE
:1026A4007B689B691A437B68DB691A437B681B6AF6
:1026B40013437A6913437B617B685B6A042B07D1FC
:1026C4007B68DA6A7B681B6B13437A6913437B610B
:1026D4007B681B687A691A607B681B685B697B612D
:1026E4007B6923F007037B617B685B6A7A69134328
:1026F4007B617B685B6A042B17D17B689B6A7A6970
:1027040013437B617B68DB6A002B0ED0786800F092
:102714000FFB0346002B08D07B6840225A657B6878
:10272400012283F83520012316E07B681B687A694F
:102734005A61786800F0C6FA0346FB607B68DB6D7B
:102744003F229A40FB689A607B6800225A657B6846
:10275400012283F83520002318461837BD4680BD72
:102764003F8010F080B586B000AFF860B9607A6041
:102774003B600023FB75FB689B6D3B61FB6893F832
:102784003430012B01D1022340E0FB68012283F89D
:102794003420FB6893F83530DBB2012B2FD1FB6872
:1027A400022283F83520FB6800225A653B687A6868
:1027B400B968F86800F058FAFB68DB6D3F229A406C
:1027C4003B699A60FB681B681A68FB681B6842F0E7
:1027D40016021A60FB681B6C002B07D0FB681B6891
:1027E4001A68FB681B6842F008021A60FB681B68E1
:1027F4001A68FB681B6842F001021A6005E0FB6876
:10280400002283F834200223FB75FB7D1846183719
:10281400BD4680BD80B584B000AF78607B689B6D99
:10282400FB60FFF7D3FDB8607B6893F83530DBB20B
:10283400022B08D07B6880225A657B68002283F8CB
:102844003420012352E07B681B681A687B681B688C
:1028540022F016021A607B681B685A697B681B6841
:1028640022F080025A617B681B6C002B03D17B68C9
:102874009B6C002B07D07B681B681A687B681B68FD
:1028840022F008021A607B681B681A687B681B6860
:1028940022F001021A6013E0FFF798FD0246BB68BC
:1028A400D31A052B0CD97B6820225A657B68032236
:1028B40083F835207B68002283F83420032315E055
:1028C4007B681B681B6803F00103002BE4D17B6861
:1028D400DB6D3F229A40FB689A607B68012283F893
:1028E40035207B68002283F83420002318461037F3
:1028F400BD4680BD80B483B000AF78607B6893F838
:102904003530DBB2022B04D07B6880225A65012368
:102914000CE07B68052283F835207B681B681A6805
:102924007B681B6822F001021A60002318460C37EA
:10293400BD465DF8047B704780B586B000AF786013
:102944000023BB608E4B1B688E4AA2FB03239B0AA9
:102954007B617B689B6D3B613B691B68FB607B68AB
:10296400DB6D08229A40FB681340002B1AD07B6869
:102974001B681B6803F00403002B13D07B681B68DF
:102984001A687B681B6822F004021A607B68DB6D9E
:1029940008229A403B699A607B685B6D43F00102B0
:1029A4007B685A657B68DB6D01229A40FB681340A3
:1029B400002B12D07B681B685B6903F08003002B3B
:1029C4000BD07B68DB6D01229A403B699A607B687F
:1029D4005B6D43F002027B685A657B68DB6D042201
:1029E4009A40FB681340002B12D07B681B681B685D
:1029F40003F00203002B0BD07B68DB6D04229A40AA
:102A04003B699A607B685B6D43F004027B685A659E
:102A14007B68DB6D10229A40FB681340002B43D087
:102A24007B681B681B6803F00803002B3CD07B68A1
:102A3400DB6D10229A403B699A607B681B681B68B7
:102A440003F48023002B18D07B681B681B6803F4F5
:102A54000023002B08D17B681B6C002B24D07B68DF
:102A64001B6C786898471FE07B689B6C002B1BD01D
:102A74007B689B6C7868984716E07B681B681B68CA
:102A840003F48073002B07D17B681B681A687B688A
:102A94001B6822F008021A607B681B6C002B03D0B1
:102AA4007B681B6C786898477B68DB6D20229A40B2
:102AB400FB681340002B00F08F807B681B681B6849
:102AC40003F01003002B00F087807B68DB6D20226D
:102AD4009A403B699A607B6893F83530DBB2052BEA
:102AE40036D17B681B681A687B681B6822F0160263
:102AF4001A607B681B685A697B681B6822F0800235
:102B04005A617B681B6C002B03D17B689B6C002B88
:102B140007D07B681B681A687B681B6822F0080270
:102B24001A607B68DB6D3F229A403B699A607B6840
:102B3400012283F835207B68002283F834207B68E7
:102B44001B6D002B7ED07B681B6D7868984779E0FD
:102B54007B681B681B6803F48023002B1DD07B68F3
:102B64001B681B6803F40023002B0DD17B685B6C8E
:102B7400002B31D07B685B6C786898472CE000BFF1
:102B840010000020B5814E1B7B68DB6B002B23D02B
:102B94007B68DB6B786898471EE07B681B681B6862
:102BA40003F48073002B0FD17B681B681A687B6861
:102BB4001B6822F010021A607B68012283F835201A
:102BC4007B68002283F834207B68DB6B002B03D006
:102BD4007B68DB6B786898477B685B6D002B32D031
:102BE4007B685B6D03F00103002B22D07B68052218
:102BF40083F835207B681B681A687B681B6822F0A1
:102C040001021A60BB680133BB607A699A4207D338
:102C14007B681B681B6803F00103002BF2D100E002
:102C240000BF7B68012283F835207B68002283F88B
:102C340034207B68DB6C002B05D07B68DB6C786808
:102C4400984700E000BF1837BD4680BD80B483B00C
:102C540000AF78607B6893F83530DBB218460C37E8
:102C6400BD465DF8047B704780B485B000AFF86062
:102C7400B9607A603B60FB681B681A68FB681B6874
:102C840022F480221A60FB681B683A685A60FB6869
:102C94009B68402B08D1FB681B687A689A60FB68C4
:102CA4001B68BA68DA6007E0FB681B68BA689A6058
:102CB400FB681B687A68DA6000BF1437BD465DF8AC
:102CC400047B704780B485B000AF78607B681B6874
:102CD400DBB2103B144AA2FB03231B09FB60134A1B
:102CE400FB6813441B781A467B68DA65FB68032B80
:102CF40009D97B681B6823F47F7323F003031A1D2F
:102D04007B689A6507E07B681B6823F47F7323F074
:102D140003037A6893657B689B6D18461437BD4638
:102D24005DF8047B704700BFABAAAAAA207C000808
:102D340080B485B000AF78600023FB737B689B6A26
:102D4400BB607B689B69002B1FD1BB68032B56D8E3
:102D540001A252F823F000BF6D2D00087F2D00085A
:102D64006D2D0008032E00087B68DB6A03F0807376
:102D7400002B46D00123FB7343E07B68DB6AB3F18D
:102D8400C07F40D10123FB733DE07B689B69B3F5B1
:102D9400005F21D1BB68032B37D801A252F823F07E
:102DA400B52D0008BB2D0008B52D0008CD2D000859
:102DB4000123FB7330E07B68DB6A03F08073002B34
:102DC40025D00123FB7322E07B68DB6AB3F1C07F6B
:102DD4001FD10123FB731CE0BB68022B03D9BB6822
:102DE400032B03D018E00123FB7315E07B68DB6A37
:102DF40003F08073002B0ED00123FB730BE000BFA4
:102E04000AE000BF08E000BF06E000BF04E000BF26
:102E140002E000BF00E000BFFB7B18461437BD464C
:102E24005DF8047B704700BF80B489B000AF786060
:102E3400396000237B6100233B610023BB610023D5
:102E4400FB6159E10122FB6902FA03F37B613B68F0
:102E54001B687A6913403B613A697B699A4240F086
:102E640048813B685B6803F00303012B05D03B6892
:102E74005B6803F00303022B30D17B689B68BB6162
:102E8400FB695B00032202FA03F3DB43BA691340D4
:102E9400BB613B68DA68FB695B0002FA03F3BA6959
:102EA4001343BB617B68BA699A607B685B68BB61EA
:102EB4000122FB6902FA03F3DB43BA691340BB61E5
:102EC4003B685B681B0903F00102FB6902FA03F328
:102ED400BA691343BB617B68BA695A603B685B6833
:102EE40003F00303032B17D07B68DB68BB61FB692A
:102EF4005B00032202FA03F3DB43BA691340BB61AC
:102F04003B689A68FB695B0002FA03F3BA691343EE
:102F1400BB617B68BA69DA603B685B6803F00303F2
:102F2400022B23D1FB69DA087B68083253F822307C
:102F3400BB61FB6903F007039B000F2202FA03F352
:102F4400DB43BA691340BB613B681A69FB6903F050
:102F540007039B0002FA03F3BA691343BB61FB69DD
:102F6400DA087B680832B96943F822107B681B6869
:102F7400BB61FB695B00032202FA03F3DB43BA691A
:102F84001340BB613B685B6803F00302FB695B00B1
:102F940002FA03F3BA691343BB617B68BA691A6026
:102FA4003B685B6803F44033002B00F0A2800023ED
:102FB400FB60574B5B6C564A43F480435364544B59
:102FC4005B6C03F48043FB60FB68524AFB699B081B
:102FD400023352F82330BB61FB6903F003039B0007
:102FE4000F2202FA03F3DB43BA691340BB617B6827
:102FF400494A934219D07B68484A934213D07B686C
:10300400474A93420DD07B68464A934207D07B6877
:10301400454A934201D1042308E0072306E0032331
:1030240004E0022302E0012300E00023FA6902F035
:10303400030292009340BA691343BB613549FB69AB
:103044009B080233BA6941F82320384B9B68BB6163
:103054003B69DB43BA691340BB613B685B6803F4BB
:103064008013002B03D0BA693B691343BB612F4A19
:10307400BB6993602D4BDB68BB613B69DB43BA6979
:103084001340BB613B685B6803F40013002B03D05F
:10309400BA693B691343BB61244ABB69D360234BC0
:1030A4005B68BB613B69DB43BA691340BB613B6846
:1030B4005B6803F40033002B03D0BA693B69134304
:1030C400BB611A4ABB695360184B1B68BB613B69FF
:1030D400DB43BA691340BB613B685B6803F480332C
:1030E400002B03D0BA693B691343BB610F4ABB6928
:1030F4001360FB690133FB61FB690F2B7FF6A2AE02
:1031040000BF00BF2437BD465DF8047B704700BF95
:103114000038024000380140000002400004024030
:1031240000080240000C024000100240003C014034
:1031340080B483B000AF78600B467B8013467B700D
:103144007B78002B03D07A887B689A6103E07B88C4
:103154001A047B689A6100BF0C37BD465DF8047B96
:10316400704780B485B000AF78600B467B807B6885
:103174005B69FB607A88FB6813401A04FB68D943D7
:103184007B880B401A437B689A6100BF1437BD46A5
:103194005DF8047B7047000080B584B000AF7860B0
:1031A4007B68002B01D101232BE17B6893F83D3030
:1031B400DBB2002B06D17B68002283F83C207868C0
:1031C400FDF7FAFE7B68242283F83D207B681B68A8
:1031D4001A687B681B6822F001021A607B681B680E
:1031E4001A687B681B6842F400421A607B681B689B
:1031F4001A687B681B6822F400421A6002F04EFAD7
:10320400F8607B685B68814A934207D8FB68804A10
:10321400934294BF01230023DBB206E0FB687D4A9E
:10322400934294BF01230023DBB2002B01D001237E
:10323400E7E0FB68784AA2FB03239B0CBB607B6836
:103244001B685B6823F03F017B681B68BA680A430C
:103254005A607B681B681B6A23F03F017B685B68CC
:103264006A4A934202D8BB68013309E0BB684FF451
:10327400967202FB03F3694AA2FB03239B09013301
:103284007A6812680B4313627B681B68DB6923F45A
:103294004F4222F0FF027B685B685C498B4219D87D
:1032A400FB68591E7B685B685B00B1FBF3F3591C38
:1032B40040F6FC730B40002B0AD0FB68591E7B6858
:1032C4005B685B00B1FBF3F30133C3F30B0351E021
:1032D40004234FE07B689B68002B11D1FB68581EC8
:1032E4007B6859680B465B000B44B0FBF3F3013376
:1032F400C3F30B03002B0CBF01230023DBB212E04A
:10330400FB68581E7B6859680B469B000B44990068
:103314000B44B0FBF3F30133C3F30B03002B0CBFDB
:1033240001230023DBB2002B01D0012322E07B68C0
:103334009B68002B0ED1FB68581E7B6859680B46AE
:103344005B000B44B0FBF3F30133C3F30B0343F40F
:1033540000430FE0FB68581E7B6859680B469B00CE
:103364000B4499000B44B0FBF3F30133C3F30B0399
:1033740043F44043796809681343CB617B681B6855
:103384001B6823F0C0017B68DA697B681B6A1A43F7
:103394007B681B680A431A607B681B689B6823F47C
:1033A400034323F0FF037A6811697A68D2681143F2
:1033B4007A6812680B4393607B681B68DB6823F0B0
:1033C400FF017B685A697B689B691A437B681B68A9
:1033D4000A43DA607B681B681A687B681B6842F0E2
:1033E40001021A607B6800221A647B68202283F839
:1033F4003D207B6800221A637B68002283F83E200C
:10340400002318461037BD4680BD00BFA0860100CA
:103414007F841E00FF083D0083DE1B43D34D6210F2
:1034240080B483B000AF78607B681B685B6903F08D
:103434008003802B03D17B681B6800221A6100BFC4
:103444000C37BD465DF8047B704780B588B000AF8B
:1034540078600023BB617B681B685B687B617B6869
:10346400DB6A3B617B6893F83E30FB737B6893F8BF
:103474003D30BB73FB7B102B03D0FB7B402B40F018
:10348400C1807B681B689B69BB617B681B685B6947
:10349400FB61FB6903F00103002B0DD13B69B3F51C
:1034A4002A0F03D03B69B3F12A4F01D1012300E075
:1034B4000023012B00F03281FB6903F00103002B90
:1034C4000CD07B695B0A03F00103002B06D07868FB
:1034D40001F098FC786800F09BFD92E0FB69DB0842
:1034E40003F00103002B09D07B695B0A03F001039D
:1034F400002B03D0786800F011FE82E0FB695B08C2
:1035040003F00103002B09D07B695B0A03F001037C
:10351400002B03D0786800F02BFE72E0BB699B0897
:1035240003F00103002B3BD07B681B685B6803F44A
:103534000063B3F5006F00F0F380FB69DB0903F06F
:103544000103002B0FD07B699B0A03F00103002BBE
:1035540009D0FB699B0803F00103002B03D17868B1
:1035640000F0F3F94DE0FB699B0803F00103002B25
:1035740000F0D6807B695B0A03F00103002B00F0A6
:10358400CF80BB7B212B03D1786800F07AFAC7E0A7
:10359400FB7B402B40F0C480786800F0E8FABFE081
:1035A4007B681B685B6803F40063B3F5006F00F08D
:1035B400B780FB699B0903F00103002B0FD07B69E3
:1035C4009B0A03F00103002B09D0FB699B0803F05D
:1035D4000103002B03D1786800F061FB11E0FB6963
:1035E4009B0803F00103002B00F09A807B695B0ABF
:1035F40003F00103002B00F09380786800F017FCBF
:103604008EE08DE07B681B6C002B04D07B681B680C
:103614005B69FB6107E07B681B689B69BB617B6836
:103624001B685B69FB61FB695B0803F00103002B0A
:1036340012D07B695B0A03F00103002B0CD07B687A
:103644001B6C002B03D07B681B689B69BB61B96949
:10365400786800F0DCFF66E0FB691B0903F00103F6
:10366400002B09D07B695B0A03F00103002B03D014
:10367400786801F017F856E0BB7B212B02D0BB7BA6
:10368400292B25D1FB69DB0903F00103002B0FD0A3
:103694007B699B0A03F00103002B09D0FB699B089B
:1036A40003F00103002B03D1786800F0F2FE39E047
:1036B400FB699B0803F00103002B33D07B695B0A91
:1036C40003F00103002B2DD0786800F01FFF29E0E0
:1036D400FB699B0903F00103002B0FD07B699B0A54
:1036E40003F00103002B09D0FB699B0803F00103DD
:1036F400002B03D1786800F02AFF14E0FB699B08D3
:1037040003F00103002B0ED07B695B0A03F0010375
:10371400002B08D0786800F058FF04E000BF02E0F6
:1037240000BF00E000BF2037BD4680BD80B58AB031
:1037340000AF78607B681B685B693B627B681B68D1
:103744005B68FB6100237B627B6893F83E30FB7609
:103754003B6A1B0A03F00103002B0ED0FB691B0A12
:1037640003F00103002B08D07B6A43F001037B6262
:103774007B681B686FF480725A613B6A5B0A03F0D2
:103784000103002B0ED0FB691B0A03F00103002B7D
:1037940008D07B6A43F002037B627B681B686FF48A
:1037A40000725A613B6A9B0A03F00103002B3FD06D
:1037B400FB691B0A03F00103002B39D0FB7EBB76A7
:1037C4007B685B8D9BB27B617B6893F83D30FB74B7
:1037D4007B681B6BFB60BB7E202B12D17B69002BAB
:1037E4000FD1FB7C212B08D0FB7C292B05D0FB7C43
:1037F400282B06D1FB68212B03D1786801F082F8CD
:1038040016E07B681B686FF480625A617B6A43F040
:1038140004037B62FB7E102B02D0FB7E402B07D17E
:103824007B681B681A687B681B6842F400721A6024
:103834003B6ADB0A03F00103002B0ED0FB691B0A71
:1038440003F00103002B08D07B6A43F008037B627A
:103854007B681B686FF400625A617B6A002B08D096
:103864007B681A6C7B6A1A437B681A64786801F077
:10387400BDF800BF2837BD4680BD80B483B000AF1B
:10388400786000BF0C37BD465DF8047B704780B498
:1038940083B000AF786000BF0C37BD465DF8047B91
:1038A400704780B483B000AF786000BF0C37BD466A
:1038B4005DF8047B704780B483B000AF786000BFCC
:1038C4000C37BD465DF8047B704780B483B000AF0D
:1038D40078600B46FB7013463B8000BF0C37BD4637
:1038E4005DF8047B704780B483B000AF786000BF9C
:1038F4000C37BD465DF8047B704780B483B000AFDD
:10390400786000BF0C37BD465DF8047B704780B417
:1039140083B000AF786000BF0C37BD465DF8047B10
:10392400704780B483B000AF786000BF0C37BD46E9
:103934005DF8047B704780B483B000AF786000BF4B
:103944000C37BD465DF8047B704780B584B000AF8A
:1039540078607B6893F83D30FB737B6893F83E3066
:10396400BB737B68DB6ABB607B681B8D002B50D10B
:10397400FB7B212B4DD1BB68082B1DD0BB68202BB2
:103984001AD0BB6813F5803F16D07B681B685A6851
:103994007B681B6822F4E0625A607B6811221A6318
:1039A4007B68002283F83E207B68202283F83D2038
:1039B4007868FFF762FF60E07B681B685A687B6881
:1039C4001B6822F4E0625A607B681B681A687B6893
:1039D4001B6842F400721A607B6800221A637B68D9
:1039E400202283F83D207B6893F83E30DBB2402BE5
:1039F40007D17B68002283F83E207868FFF77DFFBB
:103A04003BE07B68002283F83E207868FFF735FFAF
:103A140033E0FB7B212B05D0BB7B402B2DD1FB7BE3
:103A2400222B2AD17B685B8D9BB2002B08D17B684B
:103A34001B685A687B681B6822F480625A601CE029
:103A44007B6893F83E30DBB2402B03D1786800F0FA
:103A54008EF812E07B685B6A1A787B681B681A61CF
:103A64007B685B6A5A1C7B685A627B685B8D9BB27D
:103A7400013B9AB27B685A85FFE700BF1037BD4609
:103A840080BD80B584B000AF78607B68DB6AFB6082
:103A94007B6893F83D30DBB2212B64D17B685B8D6E
:103AA4009BB2002B12D07B685B6A1A787B681B6818
:103AB4001A617B685B6A5A1C7B685A627B685B8DFF
:103AC4009BB2013B9AB27B685A854CE0FB68082B99
:103AD4001DD0FB68202B1AD0FB6813F5803F16D04D
:103AE4007B681B685A687B681B6822F4E0625A6032
:103AF4007B6811221A637B68002283F83E207B686E
:103B0400202283F83D207868FFF7B7FE2BE07B681E
:103B14001B685A687B681B6822F4E0625A607B6801
:103B24001B681A687B681B6842F400721A607B6821
:103B340000221A637B68202283F83D207B6893F877
:103B44003E30DBB2402B07D17B68002283F83E2055
:103B54007868FFF7D2FE06E07B68002283F83E20F7
:103B64007868FFF78AFE00BF1037BD4680BD80B578
:103B740084B000AF78607B6893F83D30FB737B685A
:103B84001B6D002B1DD17B68DB6C012B0BD17B687B
:103B94009B6CDAB27B681B681A617B681B6D9A1C8C
:103BA4007B681A6577E07B689B6C9BB21B12DAB268
:103BB4007B681B681A617B681B6D5A1C7B681A65DD
:103BC40069E07B681B6D012B0BD17B689B6CDAB2BF
:103BD4007B681B681A617B681B6D5A1C7B681A65BD
:103BE40059E07B681B6D022B52D1FB7B222B0DD13C
:103BF4007B681B681A687B681B6842F480721A60D1
:103C04007B681B6D5A1C7B681A6544E07B685B8D7E
:103C14009BB2002B15D0FB7B212B12D17B685B6AF6
:103C24001A787B681B681A617B685B6A5A1C7B681C
:103C34005A627B685B8D9BB2013B9AB27B685A8562
:103C440029E07B685B8D9BB2002B24D1FB7B212B6D
:103C540021D17B681B685A687B681B6822F4E06288
:103C64005A607B681B681A687B681B6842F40072A0
:103C74001A607B6800221A637B68202283F83D2047
:103C84007B68002283F83E207868FFF736FE02E066
:103C94007868FFF7C5FB00BF1037BD4680BD80B50F
:103CA40084B000AF78607B6893F83D30DBB2222BA0
:103CB40040F0B9807B68DB6AFB607B685B8D9BB2FC
:103CC400BB60BB68032B21D97B681B681A697B68BE
:103CD4005B6AD2B21A707B685B6A5A1C7B685A6250
:103CE4007B685B8D9BB2013B9AB27B685A857B688B
:103CF4005B8D9BB2032B40F096807B681B685A68EF
:103D04007B681B6822F480625A608CE07B68DB6A03
:103D1400022B7FD0BB68012B02D0BB68002B79D16A
:103D2400786801F03DF80346002B4CD17B681B6892
:103D34001A687B681B6822F480621A607B681B68BF
:103D44005A687B681B6822F4E0625A607B681B68CF
:103D54001A697B685B6AD2B21A707B685B6A5A1C08
:103D64007B685A627B685B8D9BB2013B9AB27B682D
:103D74005A857B68202283F83D207B6893F83E3087
:103D8400DBB2402B0AD17B68002283F83E207B689B
:103D940000221A637868FFF7BAFD44E07B680022CA
:103DA40083F83E20FB68082B02D0FB68202B03D14C
:103DB4007B6800221A6302E07B6812221A63786827
:103DC400FFF765FD2FE07B681B685A687B681B68FA
:103DD40022F4E0625A607B681B681A697B685B6A3C
:103DE400D2B21A707B685B6A5A1C7B685A627B6821
:103DF4005B8D9BB2013B9AB27B685A857B6820221B
:103E040083F83D207B68002283F83E207868FFF722
:103E140088FD08E07B681B685A687B681B6822F48D
:103E240080625A60FFE700BF1037BD4680BD80B591
:103E340084B000AF78607B68DB6AFB607B685B8D75
:103E44009BB2042B1BD17B681B685A687B681B6878
:103E540022F480625A607B681B681A697B685B6A1B
:103E6400D2B21A707B685B6A5A1C7B685A627B68A0
:103E74005B8D9BB2013B9AB27B685A85C4E07B6838
:103E84005B8D9BB2032B29D17B681B685A687B68C6
:103E94001B6822F480625A60FB68042B0AD0FB681A
:103EA400022B07D07B681B681A687B681B6822F4A6
:103EB40080621A607B681B681A697B685B6AD2B28D
:103EC4001A707B685B6A5A1C7B685A627B685B8DDC
:103ED4009BB2013B9AB27B685A8595E07B685B8D07
:103EE4009BB2022B7DD1FB68012B02D0FB68102B07
:103EF40008D17B681B681A687B681B6822F480629F
:103F04001A6016E0FB68042B02D0FB68022B08D170
:103F14007B681B681A687B681B6842F480621A60BD
:103F240007E07B681B681A687B681B6842F40072B0
:103F34001A607B681B681A697B685B6AD2B21A7064
:103F44007B685B6A5A1C7B685A627B685B8D9BB298
:103F5400013B9AB27B685A857B681B681A697B6847
:103F64005B6AD2B21A707B685B6A5A1C7B685A62BD
:103F74007B685B8D9BB2013B9AB27B685A857B68F8
:103F84001B685A687B681B6822F440725A607B681D
:103F9400202283F83D207B6893F83E30DBB2402B2F
:103FA4000AD17B68002283F83E207B6800221A63D2
:103FB4007868FFF7ACFC27E07B68002283F83E209A
:103FC400FB68082B02D0FB68202B03D17B680022FE
:103FD4001A6302E07B6812221A637868FFF757FCC1
:103FE40012E07B681B681A697B685B6AD2B21A703C
:103FF4007B685B6A5A1C7B685A627B685B8D9BB2E8
:10400400013B9AB27B685A8500BF1037BD4680BD1C
:1040140080B483B000AF78607B6893F83E30DBB245
:10402400402B17D17B681B6D002B09D17B685B6C1F
:10403400DBB21A467B681B6802F0FE021A6167E075
:104044007B685B6CDBB243F00103DAB27B681B680C
:104054001A615DE07B681B69B3F5804F33D17B68DF
:1040640093F83D30DBB2212B09D17B685B6CDBB26A
:104074001A467B681B6802F0FE021A6108E07B683E
:104084005B6CDBB243F00103DAB27B681B681A6134
:104094007B685B6B002B04D07B685B6BDB6B002B5A
:1040A40008D17B689B6B002B32D07B689B6BDB6BEE
:1040B400002B2DD07B681B685A687B681B6842F410
:1040C40000625A6024E07B681B6D002B0ED17B6874
:1040D4005B6C9BB2DB11DBB203F00603DBB263F073
:1040E4000F03DAB27B681B681A6111E07B681B6DF1
:1040F400012B0DD17B685B6C9BB2DB11DBB203F04F
:104104000603DBB263F00E03DAB27B681B681A6144
:1041140000BF0C37BD465DF8047B704780B483B0A4
:1041240000AF78607B685B6CDAB27B681B681A61ED
:104134007B685B6B002B04D07B685B6BDB6B002BB9
:1041440008D17B689B6B002B0CD07B689B6BDB6B73
:10415400002B07D07B681B685A687B681B6842F495
:1041640000625A6000BF0C37BD465DF8047B70479F
:1041740080B491B000AF78607B6893F83E3087F8E4
:104184003F307B68DB6ABB637B681B6B7B637B684C
:1041940093F83D30DBB2222B40F069817B681B6DC4
:1041A400002B0FD197F83F30402B0BD100233B63FA
:1041B4007B681B685B693B637B681B689B693B632B
:1041C4003B6B60E17B681B6D002B1DD17B681B6919
:1041D400B3F5404F18D10023FB627B681B685B6911
:1041E400FB627B681B689B69FB62FB6A7B681B68DC
:1041F4001A687B681B6842F480721A607B681B6DC6
:104204005A1C7B681A653EE17B685B8D9BB2002B70
:1042140013D10023BB627B681B685B69BB627B684C
:104224001B689B69BB62BB6A7B681B681A687B68F6
:104234001B6842F400721A6015E17B685B8D9BB2C7
:10424400012B40F08A80BB6B13F5803F37D17B682C
:104254001B681A687B681B6822F480621A607B689A
:104264001B685B6803F40063B3F5006F13D17B68CC
:104274001B681A687B681B6822F480621A6000233A
:104284007B627B681B685B697B627B681B689B69DC
:104294007B627B6AE7E000233B627B681B685B69A7
:1042A4003B627B681B689B693B623B6A7B681B685B
:1042B4001A687B681B6842F400721A60D3E0BB6B17
:1042C400082B2ED0BB6B202B2BD07B6B122B02D157
:1042D400BB6B012B25D1BB6B042B0ED0BB6B022B0C
:1042E4000BD0BB6B102B08D07B681B681A687B68EB
:1042F4001B6822F480621A6007E07B681B681A68F6
:104304007B681B6842F480621A600023FB617B684F
:104314001B685B69FB617B681B689B69FB61FB69CC
:10432400A1E07B681B681A687B681B6822F48062C2
:104334001A600023BB617B681B685B69BB617B6897
:104344001B689B69BB61BB697B681B681A687B68D7
:104354001B6842F400721A6085E07B685B8D9BB237
:10436400022B4DD1BB6B042B16D0BB6B022B13D08D
:10437400BB6B102B10D07B681B681A687B681B68AA
:1043840022F480621A607B681B681A687B681B6869
:1043940042F400621A6007E07B681B681A687B6855
:1043A4001B6842F480621A607B681B685B6803F4D4
:1043B4000063B3F5006F17D1BB6B13F5803F0BD0CF
:1043C400BB6B012B08D0BB6B082B05D0BB6B102B30
:1043D40002D0BB6B202B07D17B681B685A687B68B3
:1043E4001B6842F480525A6000237B617B681B681F
:1043F4005B697B617B681B689B697B617B6932E0DD
:104404007B681B681A687B681B6842F480621A60C8
:104414007B681B685B6803F40063B3F5006F17D116
:10442400BB6B13F5803F0BD0BB6B012B08D0BB6B70
:10443400082B05D0BB6B102B02D0BB6B202B07D1F4
:104444007B681B685A687B681B6842F480525A6018
:1044540000233B617B681B685B693B617B681B686D
:104464009B693B613B697B6800221A650BE0002372
:10447400FB607B681B685B69FB607B681B689B69EE
:10448400FB60FB68FFE700BF4437BD465DF8047B73
:10449400704780B584B000AF78607B6893F83D3096
:1044A400FB737B685B8D9BB2002B2BD07B685B6AB4
:1044B4001A787B681B681A617B685B6A5A1C7B6884
:1044C4005A627B685B8D9BB2013B9AB27B685A85CA
:1044D4007B685B8D9BB2002B14D1FB7B292B11D104
:1044E4007B681B685A687B681B6822F480625A6088
:1044F4007B6821221A637B68282283F83D20786830
:10450400FFF7CFF900BF1037BD4680BD80B483B03C
:1045140000AF78607B685B8D9BB2002B11D07B6809
:104524005B6A1A787B681B681A617B685B6A5A1C31
:104534007B685A627B685B8D9BB2013B9AB27B6855
:104544005A8500BF0C37BD465DF8047B704780B5C3
:1045540084B000AF78607B6893F83D30FB737B6870
:104564005B8D9BB2002B2CD07B681B681A697B681F
:104574005B6AD2B21A707B685B6A5A1C7B685A62A7
:104584007B685B8D9BB2013B9AB27B685A857B68E2
:104594005B8D9BB2002B14D1FB7B2A2B11D17B6842
:1045A4001B685A687B681B6822F480625A607B68C7
:1045B40022221A637B68282283F83D207868FFF75B
:1045C4007AF900BF1037BD4680BD80B483B000AF18
:1045D40078607B685B8D9BB2002B12D07B681B6874
:1045E4001A697B685B6AD2B21A707B685B6A5A1C70
:1045F4007B685A627B685B8D9BB2013B9AB27B6895
:104604005A8500BF0C37BD465DF8047B704780B502
:1046140084B000AF786039600023FB737B6893F843
:104624003D30DBB203F02803282B27D17B681B68BD
:104634005A687B681B6822F480625A603B689B0856
:1046440003F00103002B01D10123FB733B68DB0959
:1046540003F00103002B03D17B68DB68BB8102E01C
:104664007B689B69BB817B68002283F83C20BA8904
:10467400FB7B19467868FFF728F90EE00023BB603E
:104684007B681B685B69BB607B681B689B69BB605C
:10469400BB687B68002283F83C2000BF1037BD460E
:1046A40080BD000080B584B000AF78607B6893F86B
:1046B4003D30FB737B681B685A687B681B6822F477
:1046C400E0625A600023BB607B681B685B69BB6067
:1046D4007B681B681A687B681B6842F001021A60D9
:1046E400BB687B681B681A687B681B6822F480625D
:1046F4001A607B681B685B6803F40063B3F5006FA2
:1047040072D1FB7B222B02D0FB7B2A2B35D17B6819
:104714009B6B1B685B689AB27B685A857B685B8D70
:104724009BB2002B05D07B681B6C43F004027B68B2
:104734001A647B681B685A687B681B6822F40062F1
:104744005A607B689B6B1846FEF780FA0346012B80
:1047540049D07B689B6B694A1A657B689B6B1846DA
:10476400FEF7C8F80346002B3DD07B689B6B1B6D9E
:104774007A68926B1046984735E07B685B6B1B68E0
:104784005B689AB27B685A857B685B8D9BB2002B11
:1047940005D07B681B6C43F004027B681A647B6859
:1047A4001B685A687B681B6822F400625A607B6845
:1047B4005B6B1846FEF74AFA0346012B14D07B685C
:1047C4005B6B4E4A1A657B685B6B1846FEF792F882
:1047D4000346002B08D07B685B6B1B6D7A68526BB9
:1047E4001046984700E000BF7B685B8D9BB2002BAE
:1047F4003ED07B681B685B6903F00403042B12D171
:104804007B681B681A697B685B6AD2B21A707B6822
:104814005B6A5A1C7B685A627B685B8D9BB2013B66
:104824009AB27B685A857B681B685B6903F0400316
:10483400402B12D17B681B681A697B685B6AD2B211
:104844001A707B685B6A5A1C7B685A627B685B8D52
:104854009BB2013B9AB27B685A857B685B8D9BB2A5
:10486400002B05D07B681B6C43F004027B681A6440
:104874007B681B6C002B03D0786800F0B7F839E034
:10488400FB7B2A2B09D17B6800221A637B682822D0
:1048940083F83D207868FFF70EF87B6893F83D3085
:1048A400DBB2282B11D17B68154ADA627B680022BF
:1048B4001A637B68202283F83D207B68002283F8FA
:1048C4003E207868FFF70FF814E07B681B6B222BFF
:1048D40002D0FB7B222B0DD17B6800221A637B68FC
:1048E400202283F83D207B68002283F83E207868EC
:1048F400FEF7E1FF00BF1037BD4680BD554C0008F0
:104904000000FFFF80B584B000AF78607B6893F847
:104914003D30FB737B68DB6ABB60BB68082B02D04D
:10492400BB68202B29D1FB7B282B26D17B682E4A00
:10493400DA627B681B685A687B681B6822F4E06251
:104944005A607B681B686FF480625A617B681B68DD
:104954001A687B681B6822F480621A607B680022F4
:104964001A637B68202283F83D207B68002283F849
:104974003E207868FEF7B7FF31E0FB7B212B29D17D
:104984007B68194ADA627B6821221A637B682022D9
:1049940083F83D207B68002283F83E207B681B68F7
:1049A4005A687B681B6822F4E0625A607B681B6863
:1049B4006FF480625A617B681B681A687B681B68A5
:1049C40022F480621A607868FEF72AFD7868FEF7A0
:1049D40068FF04E07B681B686FF480625A6100BF63
:1049E4001037BD4680BD00BF0000FFFF80B584B016
:1049F40000AF78607B6893F83D30FB737B6893F875
:104A04003E30BB73BB7B102B02D0BB7B402B0AD147
:104A1400FB7B222B07D17B681B681A687B681B68A9
:104A240022F400621A60FB7B03F02803282B07D1D1
:104A34007B6800221A637B68282283F83D2015E0F6
:104A44007B681B685B6803F40063B3F5006F0AD0EE
:104A5400FB7B602B07D07B68202283F83D207B689A
:104A6400002283F83E207B6800221A637B681B685F
:104A74005B6803F40063B3F5006F62D17B681B6865
:104A84005A687B681B6822F400625A607B685B6B1F
:104A940093F83530DBB2012B20D07B685B6B6A4A1C
:104AA4001A657B685B6B1846FDF724FF0346002BF1
:104AB40000F089807B681B681A687B681B6822F099
:104AC40001021A607B68202283F83D207B685B6BBF
:104AD4001B6D7A68526B1046984774E07B689B6B39
:104AE400594A1A657B689B6B1846FDF703FF03461A
:104AF400002B68D07B681B685B6903F04003402B84
:104B04000BD17B681B681A697B685B6AD2B21A7026
:104B14007B685B6A5A1C7B685A627B681B681A68EC
:104B24007B681B6822F001021A607B68202283F8EC
:104B34003D207B689B6B1B6D7A68926B104698478F
:104B440041E07B6893F83D30DBB2602B25D17B6874
:104B5400202283F83D207B6800221A647B681B684E
:104B64005B6903F04003402B0BD17B681B681A6917
:104B74007B685B6AD2B21A707B685B6A5A1C7B687A
:104B84005A627B681B681A687B681B6822F0010202
:104B94001A607868FEF7CFFE15E07B681B685B69D6
:104BA40003F04003402B0BD17B681B681A697B68B8
:104BB4005B6AD2B21A707B685B6A5A1C7B685A6261
:104BC4007868FEF7AEFE7B681B6CBB60BB6803F0C5
:104BD4000103002B0ED1BB6803F00203002B09D1A3
:104BE400BB6803F00403002B04D1BB6803F0080383
:104BF400002B07D07B681B685A687B681B6822F40B
:104C0400E0625A607B6893F83D30FB737B681B6CF1
:104C140003F00403042B13D1FB7B282B10D17B68F6
:104C24000A4ADA627B6800221A637B68202283F8CE
:104C34003D207B68002283F83E207868FEF753FE0F
:104C440000BF1037BD4680BD554C00080000FFFF73
:104C540080B586B000AF78600023FB607B689B6BF7
:104C64007B617B6993F83D30FB744B4B1B68DB081D
:104C74004A4AA2FB03231A0A13469B001344DA0090
:104C8400D31AFB60FB68002B06D17B691B6C43F0D5
:104C940020027B691A640AE0FB68013BFB607B69C4
:104CA4001B681B6803F40073B3F5007FEAD07B69CB
:104CB4005B6B002B03D07B695B6B0022DA637B693F
:104CC4009B6B002B03D07B699B6B0022DA637B69AF
:104CD4001B681A687B691B6822F480621A607B690E
:104CE40000225A857B695B6B002B03D07B695B6B6D
:104CF40000221A657B699B6B002B03D07B699B6B3D
:104D040000221A657B691B681A687B691B6822F09C
:104D140001021A607B6993F83D30DBB2602B0ED13F
:104D24007B69202283F83D207B69002283F83E20A2
:104D34007B6900221A647869FEF7FDFD27E0FB7C9D
:104D440003F02803282B17D17B691B681A687B6939
:104D54001B6842F001021A607B691B681A687B6950
:104D64001B6842F480621A607B6900221A637B69C3
:104D7400282283F83D2007E07B69202283F83D2028
:104D84007B69002283F83E207869FEF7CAFD00BFE4
:104D94001837BD4680BD00BF1000002089B5F81447
:104DA40080B485B000AF78600023FB60134B1B68B0
:104DB400DB08134AA2FB03231A0A13469B0013447D
:104DC400FB60FB68013BFB60FB68002B07D17B6841
:104DD4001B6C43F020027B681A64012308E07B68A3
:104DE4001B681B6803F40073B3F5007FE9D000234C
:104DF40018461437BD465DF8047B70471000002048
:104E040089B5F81480B483B000AF78607B68DB6A3E
:104E1400B3F52A0F03D17B680122DA6207E07B68CD
:104E2400DB6AB3F12A4F02D17B680822DA6200BF41
:104E34000C37BD465DF8047B7047000080B586B032
:104E440000AF78607B68002B01D1012367E27B68A7
:104E54001B6803F00103002B75D0884B9B6803F09B
:104E64000C03042B0CD0854B9B6803F00C03082B1C
:104E740012D1824B5B6803F48003B3F5800F0BD12E
:104E84007E4B1B6803F40033002B5BD07B685B68AC
:104E9400002B57D1012342E27B685B68B3F5803F66
:104EA40006D1764B1B68754A43F4803313601DE0CA
:104EB4007B685B68B3F5A02F0CD1704B1B686F4AFD
:104EC40043F4802313606D4B1B686C4A43F48033B6
:104ED40013600BE0694B1B68684A23F4803313604A
:104EE400664B1B68654A23F4802313607B685B6808
:104EF400002B13D0FDF76AFA386108E0FDF766FA73
:104F040002463B69D31A642B01D9032307E25B4BA6
:104F14001B6803F40033002BF0D014E0FDF756FABD
:104F2400386108E0FDF752FA02463B69D31A642B54
:104F340001D90323F3E1514B1B6803F40033002B25
:104F4400F0D100E000BF7B681B6803F00203002B74
:104F540063D04A4B9B6803F00C03002B0BD0474BE8
:104F64009B6803F00C03082B1CD1444B5B6803F4CF
:104F74008003002B16D1414B1B6803F00203002B66
:104F840005D07B68DB68012B01D00123C7E13B4BD3
:104F94001B6823F0F8027B681B69DB003749134365
:104FA4000B603AE07B68DB68002B20D0344B012295
:104FB4001A60FDF70BFA386108E0FDF707FA0246BC
:104FC4003B69D31A022B01D90323A8E12B4B1B689D
:104FD40003F00203002BF0D0284B1B6823F0F802E7
:104FE4007B681B69DB00254913430B6015E0244BE8
:104FF40000221A60FDF7EAF9386108E0FDF7E6F9E6
:1050040002463B69D31A022B01D9032387E11B4BC8
:105014001B6803F00203002BF0D17B681B6803F0CC
:105024000803002B36D07B685B69002B16D0154B28
:1050340001221A60FDF7CAF9386108E0FDF7C6F9E4
:1050440002463B69D31A022B01D9032367E10B4BB8
:105054005B6F03F00203002BF0D01BE0094B00222E
:105064001A60FDF7B3F938610EE0FDF7AFF90246B7
:105074003B69D31A022B07D9032350E100380240BD
:1050840000004742800E4742884B5B6F03F00203E7
:10509400002BEAD17B681B6803F00403002B00F0AB
:1050A40097800023FB75814B1B6C03F08053002B0E
:1050B4000FD10023BB607D4B1B6C7C4A43F08053B3
:1050C40013647A4B1B6C03F08053BB60BB680123F1
:1050D400FB75774B1B6803F48073002B18D1744B5A
:1050E4001B68734A43F480731360FDF76FF93861EA
:1050F40008E0FDF76BF902463B69D31A022B01D98C
:1051040003230CE16A4B1B6803F48073002BF0D07B
:105114007B689B68012B06D1644B1B6F634A43F089
:10512400010313671CE07B689B68052B0CD15F4B64
:105134001B6F5E4A43F0040313675C4B1B6F5B4AAF
:1051440043F0010313670BE0584B1B6F574A23F0DE
:1051540001031367554B1B6F544A23F00403136771
:105164007B689B68002B15D0FDF730F938610AE0A5
:10517400FDF72CF902463B69D31A41F28832934277
:1051840001D90323CBE0494B1B6F03F00203002B2F
:10519400EED014E0FDF71AF938610AE0FDF716F9CC
:1051A40002463B69D31A41F28832934201D9032360
:1051B400B5E03E4B1B6F03F00203002BEED1FB7DE9
:1051C400012B05D1394B1B6C384A23F080531364EF
:1051D4007B689B69002B00F0A180344B9B6803F033
:1051E4000C03082B5CD07B689B69022B41D1314BAB
:1051F40000221A60FDF7EAF8386108E0FDF7E6F8E6
:1052040002463B69D31A022B01D9032387E0274BBB
:105214001B6803F00073002BF0D17B68DA697B68AC
:105224001B6A1A437B685B6A9B011A437B689B6A0F
:105234005B08013B1B041A437B68DB6A1B061B49A2
:1052440013434B601B4B01221A60FDF7BFF8386112
:1052540008E0FDF7BBF802463B69D31A022B01D9DB
:1052640003235CE0114B1B6803F00073002BF0D0A8
:1052740054E0104B00221A60FDF7A8F8386108E0EA
:10528400FDF7A4F802463B69D31A022B01D9032384
:1052940045E0064B1B6803F00073002BF0D13DE0A2
:1052A4007B689B69012B07D1012338E00038024059
:1052B40000700040600047421B4B5B68FB607B68EA
:1052C4009B69012B28D0FB6803F480027B68DB69AF
:1052D4009A4221D1FB6803F03F027B681B6A9A4221
:1052E4001AD1FA6847F6C07313407A68526A920179
:1052F400934211D1FB6803F440327B689B6A5B08DC
:10530400013B1B049A4207D1FB6803F070627B687F
:10531400DB6A1B069A4201D0012300E000231846F1
:105324001837BD4680BD00BF0038024080B584B048
:1053340000AF786039607B68002B01D10123CCE099
:10534400684B1B6803F007033A689A420CD9654B13
:105354003A68D2B21A70634B1B6803F007033A68C9
:105364009A4201D00123B8E07B681B6803F0020372
:10537400002B20D07B681B6803F00403002B05D0AE
:10538400594B9B68584A43F4E05393607B681B680D
:1053940003F00803002B05D0534B9B68524A43F497
:1053A40060439360504B9B6823F0F0027B689B68DA
:1053B4004D4913438B607B681B6803F00103002B8A
:1053C40044D07B685B68012B07D1474B1B6803F40F
:1053D4000033002B19D101237FE07B685B68022B2B
:1053E40003D07B685B68032B07D13F4B1B6803F03A
:1053F4000073002B09D101236FE03B4B1B6803F0C2
:105404000203002B01D1012367E0374B9B6823F093
:1054140003027B685B68344913438B60FCF7D6FF57
:10542400F8600AE0FCF7D2FF0246FB68D31A41F2A7
:105434008832934201D903234FE02B4B9B6803F03E
:105444000C027B685B689B009A42EBD1254B1B687E
:1054540003F007033A689A420CD2224B3A68D2B25C
:105464001A70204B1B6803F007033A689A4201D074
:10547400012332E07B681B6803F00403002B08D08F
:10548400194B9B6823F4E0527B68DB68164913438D
:105494008B607B681B6803F00803002B09D0124B58
:1054A4009B6823F460427B681B69DB000E4913434D
:1054B4008B6000F021F802460B4B9B681B0903F03C
:1054C4000F030A49CB5C22FA03F3094A1360094B20
:1054D4001B681846FCF736FF002318461037BD46F4
:1054E40080BD00BF003C024000380240087C000838
:1054F40010000020140000202DE9B04F90B000AF40
:1055040000237B630023FB6300233B630023BB6313
:10551400594B9B6803F00C03082B0DD0082B00F2A9
:10552400A180002B02D0042B03D09BE0534BBB6320
:105534009BE0534BBB6398E04F4B5B6803F03F0326
:105544007B634D4B5B6803F48003002B28D04A4BEC
:105554005B689B0900223B627A623B6AC3F30800E2
:105564000021474B03FB01F2002300FB03F3134428
:10557400434AA0FB0212FA620A46BA62FA6A134468
:10558400FB627B6B0022BB61FA61D7E90623D7E992
:105594000A01FAF71DFE02460B461346FB6353E06D
:1055A400354B5B689B0900223B617A613B69C3F31D
:1055B400080A4FF0000B52465B464FF000004FF0D4
:1055C4000001590141EAD261500102460B46B2EB97
:1055D4000A0863EB0B094FF000024FF000034FEA97
:1055E400891343EA98634FEA8812B2EB080463EB29
:1055F40009054FF000024FF00003EB0043EA547337
:10560400E20014461D4614EB0A033B6045EB0B0312
:105614007B604FF000024FF00003D7E900452946B4
:105624008B02214643EA915321468A0210461946C9
:105634007B6B0022BB60FA60D7E90223FAF7C8FD4E
:1056440002460B461346FB630B4B5B681B0C03F0D3
:10565400030301335B003B63FA6B3B6BB2FBF3F375
:10566400BB6302E0054BBB6300BFBB6B184640370E
:10567400BD46BDE8B08F00BF003802400024F400EE
:1056840040787D0180B400AF034B1B681846BD46CB
:105694005DF8047B704700BF1000002080B500AFA8
:1056A400FFF7F0FF0246054B9B689B0A03F00703D4
:1056B4000349CB5C22FA03F3184680BD003802404C
:1056C400187C000880B500AFFFF7DCFF0246054BED
:1056D4009B685B0B03F007030349CB5C22FA03F3DB
:1056E400184680BD00380240187C000880B582B09E
:1056F40000AF78607B68002B01D1012341E07B6817
:1057040093F83D30DBB2002B06D17B68002283F88E
:105714003C207868FCF786FC7B68022283F83D20F5
:105724007B681A687B6804331946104600F09EFCB7
:105734007B68012283F846207B68012283F83E209F
:105744007B68012283F83F207B68012283F8402094
:105754007B68012283F841207B68012283F8422080
:105764007B68012283F843207B68012283F844206C
:105774007B68012283F845207B68012283F83D2061
:10578400002318460837BD4680BD000080B485B0AC
:1057940000AF78607B6893F83D30DBB2012B01D019
:1057A400012344E07B68022283F83D207B681B6868
:1057B400DA687B681B6842F00102DA607B681B6868
:1057C4001E4A934218D07B681B68B3F1804F13D0F4
:1057D4007B681B681A4A93420ED07B681B68194A7F
:1057E400934209D07B681B68174A934204D07B68B4
:1057F4001B68164A934211D17B681B689B6803F0AF
:105804000703FB60FB68062B10D07B681B681A68D3
:105814007B681B6842F001021A6007E07B681B6822
:105824001A687B681B6842F001021A60002318465C
:105834001437BD465DF8047B704700BF000001408B
:105844000004004000080040000C004000400140FB
:1058540080B582B000AF78607B68002B01D1012352
:1058640041E07B6893F83D30DBB2002B06D17B68C6
:10587400002283F83C207868FCF7A2FA7B680222B5
:1058840083F83D207B681A687B6804331946104608
:1058940000F0ECFB7B68012283F846207B68012240
:1058A40083F83E207B68012283F83F207B68012235
:1058B40083F840207B68012283F841207B68012221
:1058C40083F842207B68012283F843207B6801220D
:1058D40083F844207B68012283F845207B680122F9
:1058E40083F83D20002318460837BD4680BD0000DC
:1058F40080B584B000AF786039603B68002B09D173
:105904007B6893F83E30DBB2012B14BF01230023E4
:10591400DBB222E03B68042B09D17B6893F83F306B
:10592400DBB2012B14BF01230023DBB215E03B687B
:10593400082B09D17B6893F84030DBB2012B14BFEC
:1059440001230023DBB208E07B6893F84130DBB22B
:10595400012B14BF01230023DBB2002B01D0012350
:1059640068E03B68002B04D17B68022283F83E2068
:1059740013E03B68042B04D17B68022283F83F20A8
:105984000BE03B68082B04D17B68022283F840209B
:1059940003E07B68022283F841207B681B680122B4
:1059A4003968184600F074FD7B681B68234A9342EB
:1059B40007D17B681B685A6C7B681B6842F4004201
:1059C4005A647B681B681D4A934218D07B681B6825
:1059D400B3F1804F13D07B681B68194A93420ED0F1
:1059E4007B681B68174A934209D07B681B68164A78
:1059F400934204D07B681B68144A934211D17B689C
:105A04001B689B6803F00703FB60FB68062B10D040
:105A14007B681B681A687B681B6842F001021A6085
:105A240007E07B681B681A687B681B6842F0010208
:105A34001A60002318461037BD4680BD000001409F
:105A44000004004000080040000C004000400140F9
:105A540080B586B000AF786039607B68002B01D1D7
:105A6400012397E07B6893F83D30DBB2002B06D12D
:105A74007B68002283F83C207868FCF7D1F97B68C6
:105A8400022283F83D207B681B689B687A68126851
:105A940023F4804323F0070393607B681A687B68D0
:105AA40004331946104600F0E1FA7B681B689B68D2
:105AB4007B617B681B689B693B617B681B681B6A15
:105AC400FB603B681B687A6913437B613B6923F481
